:020000041000EA
:1000000000B5324B212058609868022188439860DF
:10001000D860186158612E4B002199600421596104
:100020000121F02299502B49196001219960352056
:1000300000F044F80222904214D00621196600F024
:1000400034F8196E01211966002018661A6600F04E
:100050002CF8196E196E196E052000F02FF8012189
:100060000842F9D1002199601B49196000215960AB
:100070001A491B48016001219960EB211966A021F2
:10008000196600F012F800219960164914480160C1
:100090000121996001BC002800D000471248134993
:1000A000086003C880F30888084703B5996A0420EC
:1000B0000142FBD001200142F8D103BD02B5186610
:1000C0001866FFF7F2FF186E186E02BD00000240BE
:1000D000000000180000070000035F00212200005C
:1000E000F4000018222000A00001001008ED00E03C
:1000F000000000000000000000000000070B8FD58A
:1001000000200420F7010010CB010010CD010010E9
:10011000C9010010C9010010C9010010C901001077
:10012000C9010010C9010010C9010010CF01001061
:10013000C9010010C9010010D1010010D301001045
:10014000C1010010C1010010C1010010C101001067
:10015000C1010010C1010010C1010010C101001057
:10016000C1010010C1010010C1010010C101001047
:10017000C1010010C1010010C1010010C101001037
:10018000C1010010C1010010C1010010C101001027
:10019000C1010010C1010010C1010010C101001017
:1001A000C1010010C1010010C1010010C101001007
:1001B000C1010010C1010010C1010010C1010010F7
:1001C000EFF30580103800BE00BE00BE00BE00BECA
:1001D00000BE00BEF2EB8871781F0710981F071051
:1001E0003802001090A31AE71E481F49086006C88D
:1001F00081F3088810471D480068002801D019487D
:10020000F3E70DA40ECC002902D000F012F8F9E7B4
:100210001749184A002000E001C19142FCD116495B
:100220008847164988471649884700BEFDE701C937
:1002300001C29A42FBD37047981F0710C0000020EC
:10024000C8210020A0400710000004200000042066
:10025000A04007100010042000100420000000003F
:10026000704700000000000008ED00E0000000D032
:10027000C8210020585E0020F1D50110BD0D0010EE
:10028000B1D50110F8B5C04606480749091A8B10C8
:10029000C90FC91810B5491003D0044B002B00D06A
:1002A000984710BDC8210020C82100200000000090
:1002B000054B10B5002B03D00449054800E000BFF2
:1002C000FFF7E2FF10BDC04600000000903700209D
:1002D00064870210F0B589B0040001F0A1F9254B44
:1002E0001B78002B04D1192001F054F809B0F0BD9F
:1002F000214D280005F0D0FA0022204B11002800E3
:100300000093012305F068FB01230C220021280043
:10031000009405F061FB1A4B1B78002B11D102AC45
:100320002200184B03CB03C21B7813702800012353
:1003300018220021009405F04FFB280005F07EFBF9
:10034000D1E71DF0B7FD0028E9D01DF0A3FD0600A0
:1003500000201EF025FC070000201EF0F9FE02AC74
:100360000190330018212000074A00971DF05CF827
:10037000DCE7C046435E0020A859002068870210D1
:10038000555E00207C87021070870210D022120672
:1003900010B553685268DB042648DB0F9204D20F75
:1003A0005B00134302785BB223499200DCB2134333
:1003B000C956224B0470187800291ED0204A1378A1
:1003C0005B185BB2012B15DD01231370844210D141
:1003D000FA241C4B1C49986A0B682401C31AA342D7
:1003E00005D31A4C0860238801331BB223800023F5
:1003F000137010BD591C18DB13708442F9D100230F
:100400000F4AD356002BE3DCF1D0FA240D4B0E49F2
:10041000986A0B682401C31AA342E8D30B4C086006
:100420002388013B1BB22380E1E7FF231370844242
:10043000EBD0DEE7495E0020EC5F0410485E002050
:10044000475E002000400540C0590020285E002083
:10045000F0B5CE46474680B583B088465D1C110096
:100460001A006B46EDB2EC1DE408E4001B1B02AF62
:100470009D46002306000920994602AC237068447B
:100480001BF062FB4B462200009341462B003000DC
:100490001FF056FDBD4601B0C0BCB946B046F0BD28
:1004A000F0B5C64600B519F037FE002900D1DFE0EF
:1004B000FA22002392001AF049FB00273900C84DA8
:1004C00006002A686B68801A99410A1E00D0C2E0B3
:1004D00096235B00984200D9BDE00122D023110091
:1004E0001B065B68BF4C194023788846002B00D060
:1004F0000FE1002900D0BFE143462370D0238022C2
:100500001B065B6852001340DA05D20F90466278F2
:10051000002A00D0E1E0002B00D0B2E14346637036
:10052000D02380221B065B68D20113405A04D20FED
:100530009046A278002A00D0B3E0002B00D096E1CC
:100540004346A370D0231B065A688023A64C134051
:1005500022781D06ED0F002A00D08EE0002B00D07F
:1005600009E1D0231B065A684023134062782570A6
:100570005D06ED0F002A00D1E7E0002B00D1DEE19F
:10058000D0231B065A6820231340A27865709D066D
:10059000ED0F002A00D00EE1002B00D043E1D02364
:1005A0001B065A6810231340E278A570DD06ED0F94
:1005B000002A00D004E1002B00D03DE1D0231B062F
:1005C0005A68082313402279E5701D07ED0F002AB1
:1005D00000D0FAE0002B00D037E1D0231B065A6888
:1005E00004231340627925715D07ED0F002A00D0C6
:1005F000F0E0002B00D031E1D0231B065A68022323
:100600001340A27965719D07ED0F002A00D005E126
:10061000002B00D0B9E0A571EFF3108272B6002173
:10062000724B1C88198024B282F31088704B9B7A1D
:10063000002B0AD1002C00DCB1E0013C012001F0CC
:10064000A1FCA3B224B2002BF7D10A2019F07AFB47
:1006500080BCB846F0BD674C2378012B00D881E000
:10066000654B1878654B1B6898470023237034E767
:10067000FA2189001AF02CFA1FE7002B00D070E74E
:1006800000255F4B5F4A1D701368EEB201331360A3
:100690005D4B30001B6898475C4B1E700023635510
:1006A000BAE7002B00D04BE7594B9B78002B00D1C9
:1006B000FCE02A686B6830003900801A99410A1EF4
:1006C00004D196235B00984200D224E14A4B0121D9
:1006D000484A2E606F601170EDE0002B00D01DE7DE
:1006E0004B4B5B78002B00D1D0E02A686B68300060
:1006F0003900801A99410A1E04D196235B00984262
:1007000000D212E13C4B01213A4A2E606F60117019
:10071000C1E0002900D0EFE63D4B1B78002B00D153
:10072000BCE02A686B6830003900801A99410A1EC3
:1007300004D196235B00984200D2E2E02E4B0121C7
:100740002C4A2E606F601170ADE0002B00D117E7CE
:100750002E4B1B78012B00D1B5E02E4B01201B68DE
:1007600098470DE7012B00D07FE7234B18782A4BE1
:100770001B68984779E7254B1B78002B00D19DE03B
:10078000244B00201B689847EBE6204B1B78062B78
:1007900000D1B1E01F4B06201B6898473BE7002CB7
:1007A00000D152E701200134404224B201F0EAFBBB
:1007B000002CF7D149E7002B00D0F0E6022560E7D6
:1007C000002B00D0FAE603255BE7002B00D004E7FE
:1007D000042556E7002B00D00EE7052551E7C0465B
:1007E000002600208C490020C8590020285E0020E7
:1007F0007C1000204B5E00204A5E002080490020D3
:100800007610002090490020C45900204C5E002042
:1008100078100020D459002084490020002B00D0FB
:10082000F9E606252DE7474B1B78022B50D0464BA7
:1008300002201B689847B2E6424B1B78032B4CD032
:10084000414B03201B689847B8E63E4B1B78042BAE
:1008500048D03D4B04201B689847BEE6394B1B78B7
:10086000052B44D0384B05201B689847C4E6374B0E
:1008700002201B68984763E6344B00201B689847AA
:100880003AE6324B01201B68984747E6304B01207F
:100890001B6898472F4B01221A703FE62C4B002013
:1008A0001B6898472B4B00221A7025E6284B022024
:1008B0001B689847274B02221A7041E6264B0020FE
:1008C0001B6898475CE7244B01201B68984744E766
:1008D000214B02201B689847A9E71F4B03201B6888
:1008E0009847ADE71C4B04201B689847B1E71A4BAB
:1008F00005201B689847B5E7174B06201B689847EB
:1009000048E7144B1A78002A00D018E713490A78F0
:1009100001320A70C7E70F4B1A78022A00D0D6E6D8
:100920000E490A7801320A70C5E70A4B1A78012A83
:1009300000D0E8E609490A7801320A70ABE70125E0
:100940009FE6C0464C5E0020D45900208849002014
:10095000844900204A5E0020D05900204B5E0020D0
:10096000F0B5CE46474680B54579040085B0002DE8
:1009700000D196E006001A36032D00D1CEE0002704
:10098000B146B846002530881AF0FDFC72491AF0CD
:1009900088FC041C1AF058FD704A714B1AF054FB85
:1009A00000280FD028001AF0EEFC211C1AF08DFC54
:1009B000011C40461AF072FC211C8046381C1AF0BB
:1009C0006DFC071C013502361A2DDCD10021381CC4
:1009D0001AF0C8FC00285BD04046391C1AF061FCB4
:1009E00060491AF05EFC002180461AF0B3FC002832
:1009F0004ED000260025371C4B4618881AF0C3FC41
:100A000055491AF04EFC041C1AF01EFD534A544B73
:100A10001AF01AFB002818D028001AF0B4FC51492B
:100A20001AF03FFC41461AF036FC011C1AF04DFC4E
:100A3000211C1AF04AFC011C381C1AF02FFC211C46
:100A4000071C301C1AF02AFC061C02239C460135A8
:100A5000E1441A2DD0D10021301C1AF083FC002172
:100A6000002809D0311C381C1AF01BFC1AF0F2FCCB
:100A70003D491AF02AFC011C3C4B40461B68984734
:100A800001233B4C237005B0C0BCB946B046F0BD55
:100A9000374C2378002B02D0364B1B689847002335
:100AA000F0E704236A4693730E220179033B006842
:100AB0006A4400951FF044FA21792068A21D14238E
:100AC00000951FF047FAA379E279E371A271237AC6
:100AD000627A63722272A37AE27AE372A272237B51
:100AE000627B63732273A37BE27BE373A273237C39
:100AF000627C63742274A37CE27CE374A274237D21
:100B0000627D63752275A37DE27DE375A275237E08
:100B1000627E637622761A34260030E704236A4622
:100B20000025D3730F220179033B00686A440095C6
:100B30001FF006FA217920683423320000951FF057
:100B400009FA33004E341A7859785A701970023302
:100B5000A342F8D113E7C04600FF7F479A999999BD
:100B60009999A93F0000C841000020410C5E002077
:100B7000525E0020105E0020F8B54746CE463A4B44
:100B800080B59946394BD0270024984601263F0668
:100B90004B461D5D280018F047FA3300AB40002299
:100BA000BB620121280018F097F943461E55013415
:100BB000032CEDD12E4BD02799462E4B002498467E
:100BC00001263F064B461D5D280018F02DFA330024
:100BD000AB400022BB620121280018F07DF943469A
:100BE0001E550134072CEDD10C2018F01DFA80237E
:100BF0005B01BB62002201210C2018F06DF90D2071
:100C000018F012FA80239B01BB62002201210D2003
:100C100018F062F97B687A68DB04DB0F9204D20F6C
:100C20005B001343144ADBB21370144A0C21137097
:100C30000023134A0C201370124A1380124A1360C7
:100C4000124B012218F088F901220C210D2018F016
:100C500057F9192018F0E8F980239B047B62C0BC87
:100C6000B946B046F8BDC046046004108C49002067
:100C7000FC5F0410C8590020495E0020485E002037
:100C8000475E0020285E0020C05900208D03001020
:100C900010B50B490B481FF02BF903211C2018F04D
:100CA00001F903211D2018F0FDF8002201211C206C
:100CB00018F012F9002201211D2018F00DF910BDC5
:100CC000801A0600E01A002010B51C4B04001B78A7
:100CD000052B05D81A4A9B00D3589F4601F0E6FD24
:100CE0002522184B985C02F0CBFE052C05D8164A3D
:100CF000A300D3589F4601F085FD144B1C7010BD16
:100D000002F09EFAF9E701F027F9E9E701F052FF56
:100D1000E6E701F0E3FAE3E702F09CF9E0E702F02E
:100D2000DFFADDE701F0C4F8E7E701F0FBFEE4E7F6
:100D300001F08CFAE1E702F041F9DEE73B5E0020CA
:100D4000BC5F04107C100020D45F04104D5E0020B6
:100D500070B5174C174D82B000201DF03BFF0028E6
:100D60001AD06B460122D91D00201DF041FFFF2340
:100D7000002805D06B46DB790D2B0FD00A2B0DD048
:100D800022680D498A42E7DC511C00202160AB54E7
:100D90001DF020FF0028E4D102B070BD2368002BB5
:100DA000DAD000260348C65403F07EFF2660D3E75E
:100DB00050370020642E0020FE030000F0B5DE4610
:100DC0004E4645465746E0B58DB000F007FCE34877
:100DD000FFF780FA1EF03AFFE14800F01DFBE14802
:100DE000FFF778FAFFF7C8FE1D221C21DE4800F04D
:100DF00013FB1B231A220F21DC4800F00DFBDC4CF7
:100E000000222000002100F007FB20000822012121
:100E100000F002FB200000240E22022100F0FCFA68
:100E2000D44ED54D2100325D2800013400F0F4FA93
:100E3000072CF7D10D220C21D04800F0EDFAFA2052
:100E4000400018F07FFFCE48FFF744FA0123012647
:100E500006AC2100238000201DF036F8C94B1E701F
:100E600000F0D2FBFA20400000F094FAC648FFF7E9
:100E700031FAFFF70DFFC54800F0CEFAC448FFF77E
:100E800029FA0023C34FC44D40222B7280213C33EA
:100E90002800009704F01EFCFF21280004F0BCFC91
:100EA000BE4BBF481E70FFF715FABE48FFF712FA97
:100EB0002623BD4EF05C02F027FCBC4800F0ACFAE3
:100EC000BB48FFF707FABB4B2200202138002380E4
:100ED0000223FFF7BDFA192018F034FF0223238004
:100EE0000733220020213800A370073BFFF7B0FA38
:100EF000192018F027FFFC235B422200202198468E
:100F000038002380FE33FFF7A3FA192018F01AFFE8
:100F100006232200202138002370053BFFF798FAB2
:100F2000192018F00FFFA44B20219B461F60C823F7
:100F30005A469B00938088235B0023800F3B22004E
:100F4000FF3B3800FFF784FA192018F0FBFE4346F8
:100F500023805B462200197918680223FFF778FA8C
:100F6000192018F0EFFE2021944800F055FA94481B
:100F7000FFF7B0F9280004F08FFC924B18220A21E9
:100F800028000093022304F027FD280004F056FDFA
:100F90008D48FFF79FF902F0B5F900F089FF8B4803
:100FA00000F03AFA8A48FFF795F902F067FC8948A1
:100FB00000F032FA8848FFF78DF988481CF0A8FD48
:100FC000874800F029FA8748FFF784F9864B039396
:100FD0001B78002B00D1A4E0844B9946844B0493EA
:100FE000844B9846844B9A460120002140421CF0D5
:100FF000E5FF4B461B78002B00D0A7E0049B1B7835
:10100000002B00D016E1FFF74BFA4346B07A1B786D
:10101000834204D0FFF758FE4246B37A1370584615
:10102000FFF79EFC280004F037FC53461B689847E6
:10103000724B1B6898472823F35C002B4DD0704BF4
:1010400070491B780968704A5BB200912000182132
:101050001CF0EAF9012308224A212800009404F038
:10106000BBFC6A4B6A491B7809686A4A5BB200910B
:10107000200018211CF0D8F9012310224A21280051
:10108000009404F0A9FC644B64491B780968644A25
:101090005BB20091200018211CF0C6F918224A21E9
:1010A00001232800009404F097FC2723F35C0593A8
:1010B0001CF0F0FE070000201EF04AF81821594AE3
:1010C000059B0190009720001CF0AEF9012320221F
:1010D0004A212800009404F07FFC280004F0AEFCB4
:1010E00019F01AF800292CD0FA220023920019F0E6
:1010F0002DFD4D4A4D4913680968C01A884218D31E
:101100004B4F5B18387813601EF0A2FD01223B782C
:1011100053403B70FFF71CFE039B1B78002B00D055
:1011200062E700200DB0F0BCBB46B246A946A0461F
:10113000F0BDFFF70DFE039B1B78002B00D053E79B
:10114000EFE7FA21890019F0C3FCD2E72523F05C10
:1011500002F096FC00234A4613704FE7888702107E
:1011600090870210A0870210A8870210C087021083
:10117000E4870210FC5F0410F88702100888021050
:1011800024880210555E0020288802102C88021046
:1011900038880210E01A0020A8590020435E002081
:1011A000408802104C8802107C10002058880210E1
:1011B0006C8802100103000030490020748802107E
:1011C000908802109C880210A8880210B48802102F
:1011D000C4880210CC880210DC88021095450010EB
:1011E000E8880210008902107B100020545E002065
:1011F000535E00203B5E0020BC590020145E00209E
:1012000076100020904900201489021075100020EB
:10121000A05900201C89021074100020A45900203D
:10122000248902102C890210183900205010002047
:10123000365E002025230024F05C02F021FC039B95
:1012400028001C7004F028FB084B0A2118222800F3
:101250000093022304F0C0FB280004F0EFFB3220CF
:1012600018F070FD2100200019F0A2FA0889021080
:10127000FA22054B920010B51A600122034B044874
:101280001A7000F0C9F810BD50100020545E002004
:1012900038890210FA2210B5044B05481A60054B34
:1012A000F93A1A7000F0B8F810BDC046501000208E
:1012B00044890210545E0020054B064A10B51A609E
:1012C0000122054B05481A7000F0A6F810BDC04673
:1012D00050100020C4090000545E00205489021000
:1012E000FA22054B920010B51A600122034B044804
:1012F0001A7000F091F810BD50100020545E0020CC
:1013000064890210F0B5C6460D00804600B500297C
:1013100004D000241E4E3378002B02D180BCB84686
:10132000F0BD1CF0C7FD0028F8D01CF0B3FD00286C
:10133000F4D000201DF034FC0028EFD0D0231B0691
:101340001B68002BEAD10120002140421CF036FE30
:1013500000201DF0FBFC83B2002B12D00004000C17
:101360002F1B874200D9070043463A001919002075
:101370001DF0CAFCE41900201DF088FCA542CAD863
:10138000CCE7012018F0DEFCA542C4D8C6E7C04671
:10139000465E0020F8B5040018F0BEFE194B0600AA
:1013A0001B780F00002B00D1F8BD1CF083FD002836
:1013B000FAD0D0231B061B68002BF5D1FA2220009F
:1013C00000230021920019F049FF8019794104009F
:1013D0000D1E12DB2F000C4E0120002140421CF09C
:1013E000EDFD012018F0AEFC736A9F42F4D8B26A9A
:1013F000A242D9D29F42D7D1EEE70124034D6442E5
:10140000E8E7C046465E002000400540FFFFFF7F42
:1014100000487047541000200FB4F0B5DE46574620
:101420004E464546E0B5B3B018F076FE00293CD0F4
:10143000FA220023920019F089FB030002AFC021B9
:101440005F4A38001BF0F0FFC02104003DAB091AD1
:101450003C9A381801931BF0FBFF00281BDB001996
:10146000BF2828D9BD230D22FA540133033AFA527A
:10147000544BBF261A78002A2BD18023524D5B0192
:101480002C689C4200D273E00122504B1A70504BE2
:101490001B78002B42D133B0F0BCBB46B246A94604
:1014A000A046F0BC08BC04B01847FA21890019F026
:1014B0000FFB0300C2E7861CBF2ED3D80D233B547D
:1014C000033B381843700023BB553E4B1A78002A63
:1014D000D3D0404C2168EFF3108072B60A68002A1E
:1014E000FCD0BFF35F8F384D1B78606099462B6846
:1014F000984680235B0198454BD30122334B1A70E9
:101500004B46002BC3D00CCCBFF35F8F0021116082
:1015100083F310882E4B1B78002BBCD01CF0CAFC28
:101520000028B8D01CF0B6FC0028B4D000201DF074
:1015300037FB0028AFD0D0231B061C68002CAAD193
:1015400000201DF003FC83B2002B0DD00004000C22
:10155000351B854200D9050039192A00002064197D
:101560001DF0D2FBA642EBD800201DF08FFB92E7C6
:101570001B1B9846B1469E421FD817484A46201862
:1015800039004C441AF0E0FA2C60464500D87EE75A
:101590007AE742469B1A9A46B3469E420BD80E48BB
:1015A0005A46390040441AF0CFFA43465B442B6058
:1015B0005645A5D9A1E79B46F1E79946DDE7C04628
:1015C00070890210445E00209C590020455E002076
:1015D000465E0020944900209C49002010B5074C2D
:1015E0002378002B03D00648FFF716FF10BD0548EF
:1015F00018F0FEF801232370F5E7C046445E002092
:101600007889021094490020012210B5024B03484A
:101610001A70FFF701FF10BD465E0020848902109A
:1016200070B5041E24D0134D2B78002B0AD0124B1A
:101630001968EFF3108072B60A68002AFCD0BFF375
:101640005F8F5860230020210C4A0D481BF0ECFEF0
:101650002B78002B07D0084B0CCBBFF35F8F0021FA
:10166000116083F3108821000648FFF7D5FE70BD96
:10167000054CD8E7445E0020944900209C89021064
:1016800054100020A08902109489021070B5041E25
:1016900003D01C4D2B78002B00D170BD21F0A8F990
:1016A00006001CF007FC002819D12B78002BF4D081
:1016B0001CF000FC0028F0D01CF0ECFB0028ECD063
:1016C00000201DF06DFA0028E7D0D0231B061B6810
:1016D000002BE2D102210C48FFF714FEDDE71CF0DD
:1016E000D9FB0028E1D000201DF05AFA0028DCD0F8
:1016F000D0231B061B68002BD7D131002000FFF739
:1017000001FED2E7465E0020AC890210F0B54E46DD
:10171000DE4657464546E0B57A4B9BB099461B7866
:10172000002B00D080E0784B00259846774B9B46F5
:10173000774B0193774B9A4643461E78002E17D17C
:101740005B461C68A54256D2641B602C00D96024FD
:10175000019B02AF22003800E9181AF0F5F94B4658
:101760001B78002B2FD12D1943461E78002EE7D071
:1017700053461A68EFF3108172B61368002BFCD041
:10178000BFF35F8F5346596043461E785B461C6823
:10179000A54230D2641B602C00D96024019B02AFAB
:1017A0002200380059191AF0CFF9002ED7D053462D
:1017B0000CCBBFF35F8F0021116083F310884B4681
:1017C0001B78002BCFD01CF075FB0028CBD01CF071
:1017D00061FB0028C7D000201DF0E2F90028C2D02C
:1017E000D0231B061B68002BBDD121003800FFF75A
:1017F00089FD2D19B8E7484B1A78002E07D0454BC4
:101800000ACBBFF35F8F0020086083F31088002AA3
:101810004DD14B461B78002B2AD11BB0F0BCBB46E8
:10182000B246A946A046F0BD1CF044FB002855D1A5
:101830004B461B78002B00D175E71CF03BFB0028C2
:1018400000D170E71CF026FB002800D16BE70020D8
:101850001DF0A6F9002800D165E7D0231B061B6800
:10186000002B00D05FE702212C48FFF74BFD5AE721
:101870001CF020FB00281ED14B461B78002BCCD03F
:101880001CF018FB0028C8D01CF004FB0028C4D0B2
:1018900000201DF085F90028BFD0D0231B061B684F
:1018A000002BBAD102211D48FFF72CFDB5E71C48DB
:1018B000FFF7ECFEADE71CF0EDFA0028DCD00020CD
:1018C0001DF06EF90028D7D0D0231B061B68002B13
:1018D000D2D10D211348FFF715FDCDE71CF0DAFA40
:1018E0000028A5D000201DF05BF90028A0D0D0234F
:1018F0001B061B68002B9BD10F210B48FFF702FD35
:1019000096E7C046465E0020445E00209C590020B9
:101910009C49002094490020455E0020AC890210BB
:10192000C0890210D4890210B089021000487047A3
:10193000B4600410004870470C60041070B50028B3
:1019400023D003282CD8174B8000C558280021F03D
:101950004FF8C0B2041C1F2812D8E4B2002808D0E7
:101960000023114AE95C01331180D9B202328C4262
:10197000F8D8C0220134E3B25B00920013430CE0BC
:101980001F24E4B20028EBD1F3E7064B02221968CA
:1019900005481AF0D9F8C1239B000448038070BDA4
:1019A0000020FCE7E8100020A62A0020A42A00203E
:1019B0007047C0467047C046054A064B11781970FB
:1019C000054BD97911702322002199547047C046E4
:1019D0002F5E0020305E00207C100020F0B5CE4647
:1019E00047461A4D25222C0080B5194B85B00D3C79
:1019F000187006009146A05C164B627A98468021CA
:101A00001B7800922A0001F07DFF2323AA1DE35CCE
:101A1000A17903920295227A0F4F01923A780092AF
:101A20006068320001F082FC4A46A05C627A3B7832
:101A3000902100922A0001F065FF42463B78137026
:101A400005B0C0BCB946B046F0BDC0468910002004
:101A500000110020305E00202F5E002001280ED0F3
:101A6000022805D0002802D10122084B9A72704743
:101A7000064A9379062BFAD801339371F7E7034AA4
:101A80009379002BF3D0013B9371F0E77C10002099
:101A9000FF2270B5124B84B01A706223114CE55CC2
:101AA000002D01D004B070BD2600DA3AA05C0E4BC8
:101AB000627A0D361B7880210092320001F022FFFD
:101AC00023001333A17903930296237A009501939F
:101AD00000220023606801F029FCE574E2E7C046BB
:101AE000001100207C100020305E0020F0B545463B
:101AF000DE4657464E46E0B5904C87B0E37C051C69
:101B0000002B00D198E08E4F00213B78984642464A
:101B10008C4B1A709A466123E35C994619F00CFCD1
:101B2000002800D000E18849281C19F0CEFB19F0EC
:101B300051FC4B460600002B00D190E0012B00D158
:101B400081E0824B99461B68B34273D00D239B46BC
:101B500004ADA34406225946280019F0F5FF2000E1
:101B600023237B4A13301278A179E35C0390584613
:101B70000290207A019040460090606801F0D6FB08
:101B8000627B297891420AD0002900D077E0002AB0
:101B900005D02521637A605C6B3101F073FEA27B76
:101BA00069788A420AD0002900D07AE0002A05D05C
:101BB0002521637A605C6B3101F064FEE27BA978D9
:101BC0008A420AD0002900D07DE0002A05D02521D4
:101BD000637A605C6B3101F055FE227CE9788A42C1
:101BE00009D0002966D1002A05D02521637A605CDE
:101BF0006B3101F047FE627C29798A4209D00029C5
:101C000046D1002A05D02521637A605C6B3101F052
:101C100039FEA27C69798A4209D0002926D1002A9E
:101C200005D02521637A605C6B3101F02BFE5246B2
:101C30003B7813704B461E6007B0F0BCBB46B24603
:101C4000A946A046F0BDE679300019F0A1FB291C99
:101C500019F03BFB19F0BEFB361A267271E7042817
:101C600000D96EE73B4A8300D3589F462522637A0A
:101C7000A05C0A00802101F005FEA27CCFE72522AE
:101C8000637AA05C0A00802101F0FCFD627B7EE7A4
:101C90002522637AA05C0A00802101F0F3FD627CBA
:101CA000AFE72522637AA05C0A00802101F0EAFDFB
:101CB000A27B7BE72522637AA05C0A00802101F0E9
:101CC000E1FD227C8FE72522637AA05C0A00802157
:101CD00001F0D8FDE27B78E7042308223B701F3334
:101CE000E2541F3B98462CE7042300223B701F332D
:101CF000E2541F3B984624E7052300223B701E3325
:101D0000E2541E3B98461CE7062300223B701D331D
:101D1000E2541D3B984614E7032308223B7020330E
:101D2000E254203B98460CE74B46012B02D001269B
:101D3000764206E70120E67940428DE77C100020DC
:101D40002F5E0020305E00200000A040F810002030
:101D500000110020C86004107047C046F0B5CE46A0
:101D6000474680B5484D87B0280020F041FE40210D
:101D700043001B185B00454C013BDBB2C91A200035
:101D800000950223133D182203F026FE2B79404ACA
:101D90009B009858904620F02BFE6B793D4F9B009E
:101DA0000600D85920F024FEFF2240211640B31D22
:101DB00002409B185A009B185B00013BDBB25B089A
:101DC000C91ACBB29946344B4946200000930022F1
:101DD000012303F001FE424649462B7920009B0077
:101DE0009B58193100930022012303F0F5FD494669
:101DF00073009B195B001E31C9186B7920009B0092
:101E0000DB5900220093012303F0E6FD234B03AED0
:101E100031000A2218681EF021FB300020F0E8FD96
:101E200005308300C01AC5B229001D4B4031200087
:101E3000009328220123C9B25E3503F0CDFDE9B23B
:101E40003C25200001232822009603F0C5FD200038
:101E50001E233C220021009503F026FD114B20009B
:101E60000193114B362200932521022303F086FDB6
:101E700080233C2260212000009503F015FD07B06F
:101E8000C0BCB946B046F0BD8F100020A859002054
:101E9000DC60041020610410148A0210FC10002081
:101EA0001C8A0210248A02100C6804107047C04675
:101EB000124B134A1A60134B134A1A60134B144AFD
:101EC0001A60144B144A1A60144B154A1A60154BC9
:101ED000154A1A60154B164A1A60164B164A1A60B4
:101EE000164B174A1A60174B174A1A60174BDB79C3
:101EF000174A1370174A13707047C046BC59002028
:101F00005D1D0010145E0020B1190010C45900209E
:101F1000DD190010D0590020911A0010D45900206A
:101F2000B5190010844900205D1A00108049002076
:101F3000AD1E001088490020591D00100C5E0020C5
:101F4000ED1A0010105E0020B91900107C1000205E
:101F5000305E00202F5E0020084A10B514000D3CB2
:101F6000617A074B82B01B78107E0091802101F0CE
:101F7000C9FC0023E37402B010BDC04689100020E4
:101F8000305E0020054A13681818642802DD6420BA
:101F900010607047C343DB171840F9E7FC100020BE
:101FA0007047C0467047C046F0B5C64600B5284DDC
:101FB0000021EF79EE7A041C7E4319F0BDF9002868
:101FC00043D1300019F0E4F9211C19F07EF919F021
:101FD00001FA204B341A1B78002B22D01E4E337886
:101FE000A34203D1347080BCB846F0BD25271B4AFC
:101FF0006B7A9046E85D1278802101F043FCE97924
:10200000200018F03DFD0C23584369184B7B9021AC
:10201000C0184346C2B21A706B7AE85D01F032FC18
:10202000E0E73900200018F02BFD0C236918584315
:102030004B7B2521C018094BC2B21A70685C6B7AC1
:102040006B3101F01FFC044ECCE701204042C0E799
:102050007C100020525E002001110020355E00201F
:10206000252010B50449054A4B7A085C1278802176
:1020700001F008FC10BDC0467C100020355E002039
:10208000F0B5CE46474680B5384D83B0280020F0E5
:10209000AFFC402143001B185B00354C013BDBB219
:1020A000C91A200000950223133D182203F094FC66
:1020B0002B79304A9B009858904620F099FC6B7918
:1020C0002D4F9B000600D85920F092FCFF224021A2
:1020D0001640B31D02409B185A009B185B00013B41
:1020E000DBB25B08C91ACBB29946244B49462000A3
:1020F00000930022012303F06FFC424649462B79EE
:1021000020009B009B58193100930022012303F00B
:1021100063FC494673009B195B001E31C9186B793B
:102120003C259B00DB59200000930022012303F093
:1021300053FC200028233C220021009503F0B4FB2F
:102140000F4B200001930F4B362200932D210223C9
:1021500003F014FC80233C2258212000009503F05A
:10216000A3FB03B0C0BCB946B046F0BD8F10002041
:10217000A85900205061041094610410148A0210C0
:10218000E48A02100C68041010B50A4C020020000A
:10219000232384B01330E35CA179039020000D3039
:1021A0000290207A0190E0790090606801F0BEF81A
:1021B00004B010BD7C100020012809D0022800D0F6
:1021C0007047074AD379032BFAD80133D371F7E765
:1021D000034AD379012BF3D9013BD371F0E7C04611
:1021E0007C10002010B584B001280ED0022806D043
:1021F000002802D10322114B9A7204B010BD0F487F
:1022000081790629F9D8013104E00C488179012946
:10221000F3D9013904002323C9B2094A8171133467
:10222000C35C1278039404000D340294047A019480
:10223000C4790094406801F079F8DEE77C10002052
:102240004C5E00207047C0467047C0460F4B104A96
:102250001A60104B104A1A60104B114A1A60114B49
:10226000114A1A60114B124A1A60124B124A1A6034
:10227000124B134A1A60134B134A1A60134B144A39
:102280001A60144B144A1A607047C046BC590020AB
:1022900081200010145E0020A11F0010C4590020EE
:1022A00089210010D0590020A51F0010D45900200A
:1022B0004922001084490020E521001080490020B7
:1022C000B921001088490020452200100C5E002032
:1022D000A91F0010105E002061200010252110B5FC
:1022E000054A064C1278637A605C5B3101F0CAFAE9
:1022F0000023E37410BDC046355E00207C10002032
:102300000122014B1A707047535E0020014B186088
:102310007047C046043800207047C046F0B5C64636
:1023200000B5012826D0022806D0002801D12B4B69
:10233000987280BCB846F0BD294C2A49227890009A
:10234000801880000B181D79002D22D09B68002B6F
:1023500002D00C3040189847234A1378002B05D040
:10236000013BDBB21370214AD35C23700022204B67
:102370001A70DEE71C4A1378002BF7D01B49013B8B
:10238000DBB21370164ACB5C13700022184B1A7024
:10239000CFE7174E9F7935785B79AB4208D97B1927
:1023A0009800C01883009846CB18187904280CD0E0
:1023B0000D490B78072BBCD8581C08700B49ED1938
:1023C000CA54002325703370B3E79B68002BB0D04C
:1023D00040460C3040189847ABE7C0467C100020C0
:1023E000315E002008110020325E002010390020EC
:1023F0003C5E0020F0B5C6464B4D00B500212E686E
:10240000041C18F099FF00280FD14849201C18F02F
:102410005CFF18F0DFFF731C03D0831B9846B042AB
:102420000AD1286080BCB846F0BD3000731CF8D0DB
:10243000F3430120984640423D4B3E4E1B789C00A2
:10244000E2189200B21811790629EAD83A4F8A00A8
:10245000BA589746E3189B00F318D9680029E0D0D2
:1024600044460A78121B9C7912B2A24206DB5B79C1
:10247000013B1C1C934200DD141CE4B20C70D0E73D
:102480002E4A94461278424417B2120409D4E31833
:102490009B00F3185B79013B191CBB4200DD391C22
:1024A000C9B263461970BCE7E3189B00F318DA68F9
:1024B000002AB6D0224909685418525C4146521A83
:1024C000997912B28A4206DB5B79013B191C93426F
:1024D00000DD111CC9B22170A3E7E3189B00F318BB
:1024E000DA68002A9DD043464146DB175B1ADB0FB2
:1024F000137096E7E418A4003619F368002B00D196
:102500008FE70F4A12689C189B5C42469B1AB2796F
:102510001BB2934206DB717901390A1C994200DD36
:102520001A1CD2B222707CE7041100200000204166
:10253000315E002008110020C46104103C5E0020C0
:10254000043800200122024B52421A607047C046F4
:1025500004110020262210B5024B985C01F0BCF853
:1025600010BDC0467C10002010B500F0CBFE10BDA1
:1025700010B5084C6C220849200019F0E5FA00203B
:1025800001F0AAF800F0BEFE2523E05C01F078FA25
:1025900010BDC0467C100020FC610410252210B53F
:1025A000024B985C01F06CFA10BDC0467C10002014
:1025B0007047C0467047C0467047C0467047C04627
:1025C000F0B5DE464E46454657460723E0B5854FF3
:1025D00089B00722002138000093793303F064F9B1
:1025E000814B824E1C78A3001D19AD00984673598B
:1025F00075191800994620F0FBF9402143001B187B
:102600005B00013BDBB25B08C91A4B46002200931A
:102610003800012303F0E0F92D79062D1DD8744A06
:10262000AB00D3589F464444A4003419E368002B00
:1026300013D01B7822699B009C58200020F0D8F909
:10264000402143001B185B00013BDBB2C91A182272
:1026500002233800009403F0BFF909B0F0BCBB4678
:10266000B246A946A046F0BD624B05AD18680A22E5
:102670002900013099461DF0F1FE280020F0B8F93C
:1026800011308300C01A4030C3B29A465A4B072219
:10269000514638000093012303F09EF9514601236F
:1026A000072238006631009503F096F92300434471
:1026B0009B00F618F368002BCFD04A461268290019
:1026C000985C0A221DF0CAFE280020F091F94021F2
:1026D00043001B185B00013BDBB2C91A182202231E
:1026E0003800009503F078F9B7E7220042449200E1
:1026F0009346B3445B465B79002BAED00E239846DD
:102700003E4B9A4606235B4499463D4B0393330068
:102710004646984613E04246A3001B199B00D35837
:102720000521009332000123380003F055F95B4680
:102730005B79AB4291D90836072D00D18DE74A4627
:10274000147852462B00127801351C19EDB2E4B210
:102750009A42E0D1039B320000930021012338000C
:1027600003F03AF9D7E74444A4003419E368002B96
:1027700000D172E705AC0A22210018781DF06EFE28
:102780005BE705AB99461B4B0A22186849460130A6
:102790009A461DF063FE484620F02AF91130830066
:1027A000C01A4030144BC5B20722290038000093EC
:1027B000012303F011F94B4629004444A40000937F
:1027C0000722012338006631341903F005F9E36864
:1027D000002B00D141E7524612689B5C22699B00A6
:1027E0009C582AE7A8590020315E002008110020DB
:1027F000E061041004380020F08A02103C5E0020E2
:10280000EC8A0210124B134A1A60134B134A1A60D7
:10281000134B144A1A60144B144A1A60144B154A8D
:102820001A60154B154A1A60154B164A1A60164B5A
:10283000164A1A60164B174A1A60174B174A1A6045
:102840000023174A1370174A1370174A1370704702
:10285000BC590020C1250010145E0020BD250010C9
:10286000C45900200D230010D05900201923001056
:10287000D4590020B5250010844900201D230010E4
:1028800080490020B925001088490020B12500109A
:102890000C5E0020F5230010105E0020452500107E
:1028A000325E0020315E00203C5E00207047C04652
:1028B0007047C0467047C046F8B50E1C0F4918F067
:1028C00004FD011C0D4818F0E6FC2527051C18F036
:1028D000AFFD63230A4CC2B2E15CE05D01F0B2F8E7
:1028E000311C281C18F0F1FC18F0A2FD6423C2B2C0
:1028F000E15CE05D01F0A6F8F8BDC0460000FE42D4
:102900007C100020F0B5CE46474680B5384D83B0E8
:10291000280020F06DF8402143001B185B00354C67
:10292000013BDBB2C91A200000950223133D182297
:1029300003F052F82B79304A9B009858904620F0CB
:1029400057F86B792D4F9B000600D85920F050F8AE
:10295000FF2240211640B31D02409B185A009B18CD
:102960005B00013BDBB25B08C91ACBB29946244B32
:102970004946200000930022012303F02DF842462F
:1029800049462B7920009B009B5819310093002267
:10299000012303F021F8494673009B195B001E31A7
:1029A000C9186B793C259B00DB592000009300225D
:1029B000012303F011F820001E233C220021009582
:1029C00002F072FF0F4B200001930F4B3622009351
:1029D0002521022302F0D2FF80233C226021200027
:1029E000009502F061FF03B0C0BCB946B046F0BD2F
:1029F0008F100020A859002068620410AC620410F7
:102A0000148A0210508B02100C680410F0B5134C9D
:102A100025272500627A85B00D35E37906008021EF
:102A2000E05D00922A0000F06DFF220023231332A4
:102A3000E35CA17903920295227A0192E2790092F5
:102A40006068320000F072FC627AE379E05D902108
:102A500000922A0000F056FF05B0F0BD7C10002067
:102A600030B50F4C25222500A05C627A85B00D356B
:102A7000E379802100922A0000F044FF2300A1792D
:102A80000295002513330393237A009501930022C6
:102A90000023606800F04AFCE57405B030BDC04614
:102AA0007C10002001280ED0022805D0002802D179
:102AB0000222084B9A727047064A9379062BFAD87D
:102AC00001339371F7E7034A9379002BF3D0013B6D
:102AD0009371F0E77C100020672310B50E4CE35C87
:102AE000002B04D16823E35C002B0CD110BD6523BF
:102AF000E25C023BE15C3E3BE05C00F0A3FF68234C
:102B0000E35C002BF2D06623E25C023BE15C3F3BDE
:102B1000E05C00F097FFE9E77C1000207047C046BA
:102B20007047C0460F4B104A1A60104B104A1A608B
:102B3000104B114A1A60114B114A1A60114B124A7C
:102B40001A60124B124A1A60124B134A1A60134B46
:102B5000134A1A60134B144A1A60144B144A1A6031
:102B60007047C046BC59002005290010145E0020A3
:102B7000B1280010C45900200D2A0010D05900209F
:102B8000612A0010D4590020B52800108449002083
:102B9000A52A001080490020212B00108849002020
:102BA0001D2B00100C5E0020B9280010105E0020C4
:102BB000D92A001030B50F4C25252200617A83B048
:102BC000E379605D0D320091802100F09BFE65236A
:102BD000E25C023BE15C605D00F034FF6623E25C96
:102BE000023BE15C605D00F02DFF0023E37403B065
:102BF00030BDC0467C1000207047C0467047C046BC
:102C000070B52525074C084A605D637A80211278EB
:102C100000F038FE054A605D8021637A127800F08A
:102C200031FE70BD7C1000203A5E0020395E00202D
:102C3000F0B54F464646D646C0B5514C0021E7791F
:102C4000E67A051C7E4318F077FB002800D094E05C
:102C5000300018F09DFB291C18F037FB18F0BAFB68
:102C6000484B351A1B78002B52D0474E3378AB4275
:102C700048D0464B464F19783A7898468A4200D158
:102C800079E02522637AA05C91460A00802100F059
:102C9000F9FDE179280017F0F3FE0C235843611881
:102CA0004B7B4946C0184346C2B21A70605C637AD7
:102CB0006B3100F0E7FD3A782521637A605C5B3187
:102CC00000F0E0FDE379681C19009A4617F0D8FE81
:102CD00028008946514617F0D3FE0C23A1445843DF
:102CE0004B465A7B434612181B78D2B23A70934235
:102CF00002D90C32D2B23A702521637A605C6B3112
:102D000000F0C0FD3570E0BCBA46B146A846F0BD43
:102D10003900280017F0B4FE0C2761184B7B2521E1
:102D200078431A4EC018C2B23270605C637A6B315D
:102D300000F0A8FDE379681C1900994617F0A0FE81
:102D400088462800494617F09BFEA0444346784336
:102D50005A7B31780E4B1218D2B21A70914202D9B6
:102D60000C32D2B21A702521637A605C6B3100F0AC
:102D700089FD054EC6E71A709EE7012040426FE7C5
:102D80007C100020525E0020C8160020375E002014
:102D9000385E002070B52525074C084A605D637ACF
:102DA0008021127800F06EFD054A605D8021637A13
:102DB000127800F067FD70BD7C100020375E0020A7
:102DC000385E0020F0B5CE46474680B5384D83B01A
:102DD00028001FF00DFE402143001B185B00354CFE
:102DE000013BDBB2C91A200000950223133D1822D3
:102DF00002F0F2FD2B79304A9B00985890461FF064
:102E0000F7FD6B792D4F9B000600D8591FF0F0FDA0
:102E1000FF2240211640B31D02409B185A009B1808
:102E20005B00013BDBB25B08C91ACBB29946244B6D
:102E30004946200000930022012302F0CDFD4246C6
:102E400049462B7920009B009B58193100930022A2
:102E5000012302F0C1FD494673009B195B001E313E
:102E6000C9186B793C259B00DB5920000093002298
:102E7000012302F0B1FD20002C233C22002100950B
:102E800002F012FD0F4B200001930F4B36220093EE
:102E90003221022302F072FD80233C2254212000C3
:102EA000009502F001FD03B0C0BCB946B046F0BDCC
:102EB0008F100020A8590020DC6204102063041049
:102EC000148A0210AC8C02100C680410F0B5C646CF
:102ED000252500B51C4C1D4A84B007009046637A36
:102EE000605D8021127800F0CDFC194E637A327853
:102EF000605D802100F0C6FC220023231332E35CD6
:102F0000A179039222000D320292227A0192E27993
:102F1000009260683A0000F009FA4346627B902113
:102F20000C3AD2B21A70A37B0C3B3370637A605DAB
:102F300000F0A8FC9021637A3278605D00F0A2FC7A
:102F400004B080BCB846F0BD7C1000203A5E002082
:102F5000395E002001280ED0022805D0002802D1B9
:102F60000422084B9A727047064A9379062BFAD8C6
:102F700001339371F7E7034A9379012BF3D9013BAE
:102F80009371F0E77C10002001280AD0022800D0BD
:102F90007047084BDA79032AFAD8DA7A0132DA7202
:102FA000F6E7044BDA79012AF2D9DA7A013ADA72D1
:102FB000EEE7C0467C1000207047C046104B114A17
:102FC0001A60114B114A1A60114B124A1A60124BC7
:102FD000124A1A60124B134A1A60134B134A1A60B2
:102FE000134B144A1A60144B144A1A60144B154AB6
:102FF0001A60154B154A1A600322154BDA71704797
:10300000BC590020C52D0010145E0020F92B0010C3
:10301000C4590020CD2E0010D0590020012C0010E2
:10302000D4590020FD2B001084490020552F00109A
:1030300080490020892F001088490020B92F0010F6
:103040000C5E0020312C0010105E0020952D001029
:103050007C10002070B52525104C114A605D637A04
:103060008021127800F00EFC0E4A605D637A8021A8
:10307000127800F007FC0C4A605D637A80211278B8
:1030800000F000FC094A637A605D8021127800F04C
:10309000F9FB0023E3740433E37170BD7C1000205E
:1030A000375E0020385E00203A5E0020395E002046
:1030B0007047C0467047C04610B5064918F005F97C
:1030C000011C044818F0E7F818F0B2F9024C20701F
:1030D00010BDC0460000FE42CA1600200C2110B5EB
:1030E000084A937901334B432521C418064BE4B2B7
:1030F000505C1B7822006B3100F0C4FB034B1C704A
:1031000010BDC0467C100020CA160020C916002041
:103110000C2210B507498B7901335A4325238218B5
:10312000D2B2C85C0023802100F0ACFBFF22024B2E
:103130001A7010BD7C100020C916002001280ED086
:10314000022805D0002802D10522084B9A72704748
:10315000064A9379062BFAD801339371F7E7034AAD
:103160009379002BF3D0013B9371F0E77C100020A2
:103170007047C04670B53C24294D86B02C233C22B4
:1031800000212800009402F08FFB264B3622019389
:10319000254B322128000093022302F0EFFB80230D
:1031A0003C2254212800009402F07EFB1F4B03AE0A
:1031B0000A22310018781DF051F930001FF018FC78
:1031C0000A308300C01AC4B22100194B40310222D8
:1031D0002800C9B200937C34012302F0FDFB0123D7
:1031E00028000222E1B2009602F0F6FB114B18789B
:1031F000FF2813D00A2231001DF030F930001FF0F3
:10320000F7FB402143001B185B00013BDBB2C91AEE
:10321000182202232800009602F0DEFB06B070BDE3
:10322000A8590020B48C02100C680410CA160020A3
:10323000BC8C0210C91600207047C0467047C046BB
:10324000114B124A1A60124B124A1A60124B134A5F
:103250001A60134B134A1A60134B144A1A60144B2A
:10326000144A1A60144B154A1A60154B154A1A6015
:10327000154B164A1A60164B164A1A60164A174B17
:10328000527A1A707047C046BC5900207531001040
:10329000145E0020B1300010C4590020DD30001051
:1032A000D0590020B5300010D45900201131001041
:1032B000844900203D31001080490020393200103F
:1032C00088490020713100100C5E0020B9300010D8
:1032D000105E00203D3200107C100020CA16002035
:1032E000252010B50449054B054A085C1B78802150
:1032F000127800F0C7FA10BD7C100020CA1600201A
:10330000C916002010B5064C1C222100054818F0F3
:103310001BFC21001C221C31034818F015FC10BDB9
:10332000A51000200417002058170020F0B5DE4635
:1033300057464E46454684B2A046E0B585B06C4639
:103340009946C3B29A464346A081109C1B0A0E00C0
:10335000934600210622200098460E9D0F9F18F0EC
:10336000EDFB5246C64B01369B5C920001930C2349
:103370005E43C44BD05843468019C0B2012B00D1E4
:10338000FAE0022B00D1AEE05E46BF49DA00D21A65
:103390008918895D401849460539C0B2022900D90B
:1033A0004FE1BA4B9B189E5DB94B9846424673005D
:1033B00099469B195B00D35CC318DBB223704B4664
:1033C0009B195B0043445A789B780325C318A3706C
:1033D00002239A4682186270002F26DD23780C3370
:1033E0002370012F21D063780C336370022F1CD01F
:1033F000022D1AD0A3780C33A370032F15DD032DF3
:1034000013D0E3780C33E370042F0ED0042D0CD0CE
:1034100023790C332371052F07D0052D05D063794F
:103420000C336371062F00D006252B0062782178BB
:10343000013B8A4201D222706170012B1DD062785B
:10344000A1788A4200D971E0022BF0D0E778B94226
:1034500000D975E0032BEAD021798F4200D979E0B9
:10346000052BE4D167798F42E1D261712178277110
:10347000013B8A42DFD3012BE1D10C2117F000FB85
:10348000019A0B00002A00D170E0824A9B009F58ED
:10349000072E03D8804BB200D358029353464E44B4
:1034A00076004644F05C0C2117F0EAFA00237B4CCE
:1034B000119A89000E59137039000F2211981FF0CC
:1034C00017F811981FF094FA0F240299221A1198F4
:1034D0001FF00EF8032D5FDC05B0F0BCBB46B24612
:1034E000A946A046F0BD4B46082B00D1A0E0664B94
:1034F00052465B449B7BC0184B46053BC0B2DBB2D7
:10350000002A00D0B6E0022B00D9CBE05F4B5B4431
:103510009E7B5F4B98464246730099469B195B0021
:10352000D35C0122C318DBB2019247E76170A2703D
:10353000022B1FD0A178E7786278B94200D889E7DA
:10354000A770E170032B00D171E7CFB221798F42D0
:1035500000D885E7E1702771052B00D067E7617916
:103560008F4200D863E72171677160E74C4B890097
:10357000CF588DE7CAB25AE74B46082B71D0424B61
:103580005B44DB79C0184B46053BC0B2022B0CD81C
:103590003E4B5B44DE7907E711981FF029FA3100B2
:1035A000221A11981EF0A4FF96E70123374AD9008A
:1035B000CB1AD2185B46D65C6B1E9A46002D4BDDAB
:1035C000334B98464246730099469B195B00D25C88
:1035D00082182270012D38D043445A7882186270C4
:1035E000022D00D1F8E69A788218A270032D00D13E
:1035F000F2E6DA788218E270042D00D1ECE61A794E
:1036000082182271052D00D1E6E65B79C31863713B
:10361000002F00DC09E723780C332370012F00D141
:1036200003E763780C336370022F00D0E2E6FCE618
:10363000154B5B44DB79C0180223C0B2134A013B2F
:10364000B5E74A46082AB1D1F8E7002F00DC14E7B5
:1036500023780C33237010E70D4B9846730099467E
:103660000BE7094B5B449B7BC018084BC0B25B4423
:103670009E7BA1E7022B28D8044B5B449E7B93E6FC
:10368000E4630410A063041020170020CC1600206F
:10369000F86304102864041050630410706304106D
:1036A000586404100A4B0C215B449E7B6B1E9A46A7
:1036B00001230193002D00DD82E717F0E1F9054AAF
:1036C0000B00904672009146DFE602236EE7C0468B
:1036D000CC160020F863041000280BD0012800D07D
:1036E0007047D02380221B06D2025A618022120327
:1036F0005A61F5E7D02380221B06D2029A6180220C
:1037000012039A61ECE7C04610B50400122015F0D0
:103710008BFC132015F088FCD023802180221B060F
:10372000C902120359625A62002C1ED0012C19D012
:103730000F4C1049200016F0C1FD0221142015F095
:10374000B1FBC022236B120213400B4A200013600E
:1037500008210023012216F041FE0021200016F06E
:1037600079FE10BD59615A61E2E799619A61DFE71C
:1037700000800340127A000030900340F0B5C64646
:103780000F2500B582B001AC05400E000D439046F8
:103790001F006270A3702200032300210020257007
:1037A0001BF0E6FC902E10D06B46220020200D4925
:1037B000DD1D14788B691842FCD101320C60AA42DD
:1037C000F7D102B080BCB846F0BD002FECD0032882
:1037D000EAD14246044B1A70044A1368013313605D
:1037E000E2E7C0460080034074100020A459002086
:1037F0000F230340502030B5404283B001AC184342
:10380000207003236170A2700021220000201BF0B1
:10381000AFFC6B46220020200549DD1D14788B6922
:103820001842FCD101320C60AA42F7D103B030BD7E
:10383000008003400F2303405020404218437B2365
:1038400030B583B001AC63700023220000212070EA
:10385000A370002003331BF08BFC6B46220020205A
:103860000549DD1D14788B691842FCD101320C60CA
:10387000AA42F7D103B030BD0080034010B500F07C
:1038800071FE10BDF8B50C0017001D0090291CD06A
:10389000194EB37A042B03D02723F35C012B10D0ED
:1038A0002B003A002100FFF769FFB37A042B03D005
:1038B0002723F35C002B00D1F8BD902C01D1002D03
:1038C00014D1380001F03EF8F6E7002BE0D00B4BA6
:1038D000094E1A700A4A136801331360B37A042B35
:1038E000DED02723F35C012BDAD1E8E7290038008A
:1038F00001F00AF8E0E7C0467C10002075100020B7
:10390000A0590020F0B557464546DE464E46E0B584
:1039100083B014000CAA1F0013788A4698460190C1
:10392000002F28D090292DD0434B002599462723DE
:103930009B464B46B9461F002678002E16D0BB7A10
:10394000042B03D05B46FB5C012B0CD043463200BA
:1039500051460198FFF712FFBB7A042B06D05B4655
:10396000FB5C002B02D0300000F0ECFF0135EDB223
:103970000134A945E0D103B0F0BCBB46B246A9462C
:10398000A046F0BD4346002B25D12B4E273345469C
:103990009946B84637002678002E16D0BB7A042BFD
:1039A00003D04B46FB5C012B0CD00023320090214E
:1039B0000198FFF7E3FEBB7A042B06D04B46FB5C75
:1039C000002B02D0300000F0BDFF0135EDB2013414
:1039D000A845E0D1CFE7194BB9469B46184B0025C7
:1039E0009A46154B1F002678002E1ED05B461E708F
:1039F000534652461B6801331360BB7A042B03D035
:103A00002723FB5C012B0CD0434632009021019808
:103A1000FFF7B4FEBB7A042B07D02723FB5C002BF7
:103A200003D04146300000F06FFF0135EDB20134A4
:103A3000A945D8D19FE7C0467C1000207510002012
:103A4000A059002070B50D4C0E00A37A1500042B70
:103A500003D02723E35C012B0BD02A003100FFF7B2
:103A6000C7FEA37A042B03D02723E35C002B00D1ED
:103A700070BD2900300000F081FFF9E77C100020C4
:103A800010B5FFF7D7FE00F097FF10BDF0B5C646A2
:103A900000B505208EB016F0F9FD664B664A1B781E
:103AA0006649127801270978079206931A220023A3
:103AB000089104930F210293019300930500059749
:103AC0005F4803921B33FDF7A7FC00215D481CF003
:103AD00089FA002800D098E000201CF051FA041E5A
:103AE00000D08DE0584B5748190098461CF08AFAD0
:103AF000061E00D18EE0002152481CF04BFA4146D0
:103B000050481CF0BDFA8046002800DA87E04F4993
:103B1000A80016F0DDFF062105001A2015F0C2F9F5
:103B200006211B2015F0BEF906210F2015F0BAF969
:103B300080235B020A93434642460133D2011B03B2
:103B40001343434A002113400B93424B42460D93CB
:103B5000414B3C480C930AAB1CF0B8FB02231A22E1
:103B60000021384800971CF057FB01230F22002149
:103B7000344800971CF050FB0022002131481CF013
:103B8000FBFA42461F231340D8222E4900208B50B7
:103B90002B062A0A12041B0C1343C8228B501CF05C
:103BA000E3F9A0232D4ADB051C605A6019229C60B2
:103BB0001A618022234952010B6829483B430B605C
:103BC000002117F0BBFF274B2A001F70264B4146F0
:103BD0001C70264B26481C70264B1C60264B1C6014
:103BE000264B1C60264B1C60264B1C80264B1C80E1
:103BF0000223FDF711FC30000EB080BCB846F0BDCA
:103C00002248FDF709FC0026F5E72148FDF704FCF2
:103C10000026F0E71F48FDF7FFFB0026EBE7002139
:103C200008481CF0CFF941461B48FDF7F5FB00267C
:103C3000E1E7C0463F5E002074170020415E00208F
:103C4000248D0210000020508864041044AC000051
:103C5000FFFFFF9F1A3C202000000640100020506C
:103C60002C3900203E5E0020425E0020405E002095
:103C70005C8E021020390020243900202C490020BD
:103C800028390020265E0020245E0020D48D0210FA
:103C9000A88D0210048E0210308E0210F0B5DE46A0
:103CA00057464E464546E0B52B4A0D0013788DB079
:103CB000D9028B469A46294B0021465E9B446B00F5
:103CC0000893012B00D87FE2AC000419944637001A
:103CD0002200811C00240B5F1C1CB34200DD341C3D
:103CE00026B21C1CBB4200DA3C1C023127B29142B6
:103CF000F0D162461A4B1E801A4B1F801A4B19785E
:103D00001A4BC9B21B78DBB29C46002D00D11DE2D4
:103D1000012364460E004B404F00002C00D045E2CA
:103D20007400079464465E00002C00D03CE281469B
:103D30005B000693AB004B44059302239C4653461D
:103D400009935B460197D8460120924637000849FF
:103D50000A930B951BE0C046405E00202C390020E2
:103D6000265E0020245E00203F5E002074170020A5
:103D7000415E00201C4343465C6004239B460433A1
:103D8000D9449B46059BD8444B4500D1D8E14B46CE
:103D900000229B5E04934B461E8802229B5EF40B1E
:103DA00003934B465D88019B1C430B78002B04D08A
:103DB00062466300134064081C43019AB313034036
:103DC0001A4302920A78002A07D0029B5A006346DF
:103DD0001A40029B5B0813430293029BA4002343F7
:103DE000019A02937313034013430A78002A04D004
:103DF00064465A0022405B081343029A940023430E
:103E000002933413019B0A7804401C43002A04D017
:103E1000634662001A4064081443029B0A789B00C0
:103E200023430293F412019B04401C43002A04D054
:103E3000634662001A4064081443029B0A789B00A0
:103E400023430293B412019B04401C43002A04D074
:103E5000634662001A4064081443029B0A789B0080
:103E6000234302937412019B04401C43002A04D094
:103E7000634662001A4064081443029B0A789B0060
:103E8000234302933412019B04401C43002A04D0B4
:103E9000634662001A4064081443029B0A789B0040
:103EA00023430293F411019B04401C43002A04D0D5
:103EB000634662001A4064081443029B0A789B0020
:103EC00023430293B411019B04401C43002A04D0F5
:103ED000634662001A4064081443029B0A789B0000
:103EE000234302937411019B04401C43002A04D015
:103EF000634662001A4064081443029B0A789B00E0
:103F0000234302933411019B04401C43002A04D034
:103F1000634662001A4064081443029B0A789B00BF
:103F200023430293F410019B04401C43002A04D055
:103F3000634662001A4064081443029B0A789B009F
:103F400023430293B410019B04401C43002A04D075
:103F5000634662001A4064081443029B019A9B0066
:103F6000234376100C7806401643002C04D062469A
:103F70007400144076082643049C9B00079A334340
:103F80000E7804401443002E04D0624666001640AA
:103F90006408344342469B00234313600B78EC0BC8
:103FA0003C43002B04D062466300134064081C436A
:103FB000AB130E7803403B43002E04D062465E00F4
:103FC00016405B083343A4001C430E786B13034078
:103FD0003B43002E04D062465E0016405B0833432C
:103FE000A40023430E782C1304403C43002E04D03D
:103FF000624666001640640834439B0023430E78F3
:10400000EC1204403C43002E04D062466600164089
:10401000640834439B0023430E78AC1204403C43B5
:10402000002E04D0624666001640640834439B00AC
:1040300023430E786C1204403C43002E04D06246A9
:1040400066001640640834439B0023430E782C120C
:1040500004403C43002E04D06246660016406408CB
:1040600034439B0023430E78EC1104403C43002E64
:1040700004D0624666001640640834439B00234324
:104080000E78AC1104403C43002E04D0624666001A
:104090001640640834439B0023430E786C1104409F
:1040A0003C43002E04D06246660016406408344348
:1040B0009B0023430E782C1104403C43002E04D077
:1040C000624666001640640834439B0023430E7822
:1040D000EC1004403C43002E04D0624666001640BB
:1040E000640834439B0023430E78AC1004403C43E7
:1040F000002E04D0624666001640640834439B00DC
:1041000023436D100C7805403D43002C04D06246DB
:104110006C0014406D082543039C9B002B43069ABA
:104120000D78044014439B00002D00D122E6624626
:1041300065001540640825431D4343465D601CE649
:104140000A9B52469B46099B0B9D9A461F4E33780D
:10415000002B0DD0A023DB051B69DB012FD5A02090
:104160008021C005490403690B42FCD113789A46AB
:10417000A0235946DB0519600899D96114490B68D9
:1041800001330B600123514659401170114A3370BD
:10419000136801331360104B1D600DB0F0BCBB46BB
:1041A000B246A946A046F0BD0B00C0E51E00740053
:1041B000079464465E00002C00D1B8E5F4E7074997
:1041C0000B6801330B60CAE7370093E5425E0020BD
:1041D0002439002020390020283900202C490020D3
:1041E000002826D0134B1B780370134B1B784370A9
:1041F000A023DB051B69DB01DB0F83700F4B1B6802
:1042000043600F4B1B6883600E4B1B68C3600E4BF3
:104210001B6803610D4B1B8883820D4B1B88C38277
:104220000C4B1B7803760C4B1B7843760B4B1B789F
:10423000837670473E5E0020425E002020390020D9
:10424000243900202C49002028390020265E002037
:10425000245E00203F5E002074170020415E002095
:10426000431E9841044B10B5C0B21870197803482A
:10427000C9B2FDF7D1F810BD3F5E0020988E021044
:10428000044B10B5187019780348C9B2FDF7C4F88B
:1042900010BDC04674170020B48E0210044B10B538
:1042A000187019780348C9B2FDF7B6F810BDC046BA
:1042B000415E0020D08E02107047C046F0B52C4CF5
:1042C0000026A544CBA806F073FBCB206946BC238F
:1042D0008022800009189B0012020800CA5006F0D4
:1042E00049FE0122234B6C461A600022224B234DCB
:1042F0001A700022224B1A600023F0B22B706B70F0
:10430000AB706B6017F03FF81E4916F0DEFF1E49D8
:1043100016F0C7FF1D4916F0C1FF071C200006F06C
:1043200047FB0423E380A033E750194BD822636195
:10433000FE2352009B05A350E36105222362502314
:1043400054925593DA23134A5B00E250B4225C3B4B
:10435000E2500022A680603320000136E25008358A
:1043600006F008FE042EC7D10B4B9D44F0BDC0469D
:10437000A4F9FFFF781700204E5E0020EC5D0020BE
:10438000E85900209A99193F00004040CDCC4C3E9E
:10439000AE47613EEC51383F5C06000030B50C4C36
:1043A000A54401AD0400280006F002FBCC23002246
:1043B0002800EA50AC8006F0DDFD0022054BE40049
:1043C0001B195A709A70CD239B009D4430BDC04686
:1043D000CCFCFFFFEC5D0020F0B50025D8270A4C8F
:1043E0000A4BA544061C186001AC200006F0E0FA58
:1043F000A58020000135E65106F0BCFD042DF4D166
:10440000CD239B009D44F0BDCCFCFFFFE85900206C
:10441000F0B5D6464F464646C0B54D4C0600A544BD
:104420006846894606F0C4FA4A4C6D466378002B0C
:1044300002D02278B2426ED0627A002A02D0217A6B
:10444000B1426ED0617C002902D0207CB0426AD09B
:10445000607E002802D0277EB74266D0002B66D04F
:104460006368002A67D0E268002793424BD800298E
:1044700065D06269934249D8002864D0E2699A42C3
:1044800047D3FA009046A3185B78BFB2002B12D036
:10449000CBAB9A46180006F08BFA534600225146E1
:1044A0009F80CC235046CA5006F064FD434600224C
:1044B000E3185A709A703000AF8016F064FFE8601D
:1044C000484616F060FF244916F0EBFECC23E85076
:1044D000224B28001A68D823EA5006F04BFD4346C9
:1044E000E65401234444637000231D4AA3701368FB
:1044F000591C11606360CB23DB009D44E0BCBA46CD
:10450000B146A846F0BD13000137B0E713000227FB
:10451000B2E70327B5E70027FB009846E3185B786E
:10452000B3E70127F8E70227F6E70327F4E70023BC
:1045300000279846BFE7082301279846BBE71023CA
:1045400002279846B7E7182303279846B3E7C046E3
:10455000A8F9FFFFEC5D00200000FE42E8590020B2
:104560007817002010B514F041FE8022064C03009D
:1045700006212000520015F01DFE0022034B1A7088
:10458000034B1A7010BDC046D8590020505E002061
:104590004F5E0020F0B5DE4657464E464546E0B534
:1045A000B748C5B0FCF738FFFFF770FA002800D114
:1045B00055E124ACB348FCF72FFF200006F0BEF90C
:1045C000FC22249B1202134024930823002201257D
:1045D000A380A360AC4BA2710432E260A3626C3290
:1045E00028A968462561656117F0AEFA24986168CC
:1045F000A268E36807F0C0FBFFF760FEA34B04214D
:104600001D708023A2485B00A24AFCF705FFA24B65
:104610001F931B782393002B4BD000232293AC33A2
:104620009B469E4B80221D939D4BD20020939D4B19
:104630009D4E9A469D4B9E4F9C46624491461E93CA
:104640002100300015F000FE051E1AD02378062B3D
:10465000F6D89B00FB589F4600235246002013705B
:10466000FFF79CFE0120FFF799FE0220FFF796FE60
:104670000320FFF793FE2100300015F0E5FD051E35
:10468000E4D11D9B1B78002B00D0BCE0209B1B7845
:10469000002B00D07BE05B46002B00D077E006F0DB
:1046A00037FB80214900FFF7F9FA1F9B1B78002B8D
:1046B000C6D18048FCF7B0FE45B0F0BCBB46B24660
:1046C000A946A046F0BD3F236288514693429B41D4
:1046D0005B420B703F2AB3D8774DAB78002B00D0EC
:1046E000B5E0AB7A002B00D0A9E0AB7C002B00D06A
:1046F0009DE0AB7E002BBBD1A2E7704B60889C464F
:10470000604416F045FE6E4916F0CBFDFFF764FEDF
:1047100096E72179A078FFF77BFE91E7A378664DB5
:1047200098466B78002B09D02B78434506D15D4B1A
:104730001B78002B00D19EE00123AB706B7A002B1D
:1047400009D02B7A434506D1564B1B78002B00D15C
:104750008DE00123AB726B7C002B08D02B7C434592
:1047600005D1504B1B78002B7DD00123AB746B7EA1
:10477000002B00D164E72B7E434500D060E7494B16
:104780001B78002B00D173E70123AB7658E74D4B24
:104790004D491D689C462A001E9B4C48219507E008
:1047A0004B4D1980A846598004334244994509D09D
:1047B000002AF5DA464D1880A84658800433424452
:1047C0009945F5D1434B802198466346219D1E981B
:1047D000454449001D60FFF761FA5B46002B00D19C
:1047E00063E701235B429C46E3445B46002B00D019
:1047F0005BE7229B002B00D057E73748FCF70CFE05
:10480000239B229351E7274B18700020FFF7C6FD2A
:104810000120FFF7C3FD0220FFF7C0FD0320FFF7D3
:10482000BDFD1D9B2D481D70FCF7F6FD2EE70220F7
:10483000FFF7B4FDAB7E002B00D019E700E70120A5
:10484000FFF7ACFDAB7C002B00D152E7EFE7002077
:10485000FFF7A4FDAB7A002B00D146E7EFE7204835
:10486000FCF7DAFD28E70220FFF798FD7FE701203B
:10487000FFF794FD6FE70020FFF790FD5EE7C0466D
:10488000F08E02102C8F0210B9420010505E0020F2
:10489000408F021044AC00007B1000204F5E0020CF
:1048A000515E00204E5E0020D8590020EC590020B7
:1048B00094640410B08F0210EC5D002000E0FFFF54
:1048C00000004047C037002078ECFFFF881300004D
:1048D000B9DF8D0200B9DF8D9C8F0210788F021036
:1048E000048F0210014B1878C0B27047505E002050
:1048F000014B18707047C046515E0020014B18787C
:10490000C0B27047515E002000B583B06B460022F4
:104910001A70094A588012789980002A01D103B090
:1049200000BD6946054815F057FC0028F7D1012263
:10493000034B1A70F3E7C046505E0020D8590020A0
:104940004F5E002010B582B06946002301248B80A1
:10495000074B0C701B784880002B01D102B010BDB2
:10496000044815F039FC0028F8D1034B1C70F5E71A
:10497000505E0020D85900204F5E002000B583B063
:104980006B4602221A70094A588012789980002AD0
:1049900001D103B000BD6946054815F01DFC002893
:1049A000F7D10122034B1A70F3E7C046505E002096
:1049B000D85900204F5E002000B583B06A46062318
:1049C0001370002353809380074B1B78002B01D179
:1049D00003B000BD6946054815F0FEFB0028F7D17D
:1049E0000122034B1A70F3E7505E0020D8590020D3
:1049F0004F5E00207047C0467047C0467047C046B3
:104A00007047C0467047C0467047C0467047C046B2
:104A1000F0B5954C0E00A54414AF4022390000F0CB
:104A200071FD051E00D1FBE0037C002B00D0F7E0F8
:104A30008E4B6C460093B31D01938D4B0293F31D77
:104A400003938C4B04933300083305938A4B0693EE
:104A5000330009330793894B089333000A330993D2
:104A6000874B0A9333000B330B93864B0C93330025
:104A70000C330D93844B0E93330025330F93834BEC
:104A80001093330027331193814B12933300283353
:104A9000139302E00834BC4212D02800216800F0D1
:104AA0001FFD0028F6D0037C042BF3D10A2200213D
:104AB00080681DF017FF636808341870BC42ECD1A1
:104AC0002800744900F00CFD041E16D0037C002B56
:104AD00017D17149200000F003FD70490500200046
:104AE00000F0FEFC0300002D02D02A7C022A18D020
:104AF000002B02D01A7C042A0CD00020684B9D4465
:104B0000F0BD012BF9D18468002CF6D0237C002B5A
:104B1000F3D1DEE70021986806321DF0E3FE7071E4
:104B2000EBE7AA681078432802D1517800297AD09F
:104B30001178432905D15478232C02D19478002C84
:104B400073D0442905D15478622C02D19478002C7A
:104B50006DD0442802D15478002C6AD0442905D164
:104B60005478232C02D19478002C64D0452905D1A7
:104B70005478622C02D19478002C5ED0452802D162
:104B80005478002C5BD0462802D15478002C58D0A1
:104B9000462905D15478232C02D19478002C52D088
:104BA000472905D15478622C02D19478002C4CD03E
:104BB000472802D15478002C49D0472905D1547890
:104BC000232C02D19478002C43D0412905D154786C
:104BD000622C02D19478002C3DD0412802D1547827
:104BE000002C3CD0412905D15478232C02D1947853
:104BF000002C36D0422905D15178622902D1917812
:104C000000292AD0422800D072E75278002A00D02A
:104C10006EE710322349D20089180A79327167E7AA
:104C2000012040426AE70022F4E70122F2E7022273
:104C3000F0E70322EEE70422ECE70522EAE706228A
:104C4000E8E70722E6E70822E4E70922E2E70A228A
:104C5000E0E70B22DEE70C22DCE70F22DAE70D2289
:104C6000D8E70E22D6E7C046ACFAFFFFC08F02108D
:104C7000C88F0210D88F0210E48F0210F08F02103C
:104C8000F88F021008900210109002101890021075
:104C90002490021034900210D88B02103890021029
:104CA00054050000F4640410F0B5DE4657464E4645
:104CB0004546E0B5CE4CCF49A54404001DF044FE66
:104CC000002862D02000CC491DF03EFE002800D113
:104CD000B1E02000C9491DF037FE002800D1B0E046
:104CE0002000C7491DF030FE002800D19CE02000C4
:104CF000C4491DF029FE002800D1A9E02000C249C6
:104D00001DF022FE002800D1A8E02000BF491DF0C0
:104D10001BFE002800D1A7E02000BD491DF014FEB5
:104D2000002800D1A7E02000BA491DF00DFE0028A0
:104D300000D1D2E02000B8491DF006FE002800D1C5
:104D4000D9E02000B5491DF0FFFD002800D1DDE0CD
:104D50002000B3491DF0F8FD002800D1E1E0062253
:104D60002000B0491DF0F8FB051E00D186E012229C
:104D7000AD49002019F0C8FF0222AC49002019F00B
:104D8000C3FF002019F082FF46E016AC2000FFF7B9
:104D900027FAFCF73DFB050019F08CF8060019F026
:104DA00079F80700002019F0FBFE804600201AF079
:104DB000CFF98146FFF796FD8246FFF79FFDA37E60
:104DC0009B4A1193637E1093237E0F931621635E9B
:104DD0000E931421635E80210D931A9B89000C931E
:104DE000199B0B93189B0A93179B0993A37808931D
:104DF00063780793237805900693534604934B46B4
:104E0000039343460096029336A82B00019718F0AF
:104E10000BFB36A8FCF73AFC864B9D44F0BCBB4626
:104E2000B246A946A046F0BD0130FFF729FA8248F4
:104E3000FCF72CFCF0E7FFF713FA8048FCF726FCA0
:104E4000EAE70130FFF70CFA7D48FCF71FFCE3E7C7
:104E5000FFF716FA7B48FCF719FCDDE7FFF71EFAAF
:104E60007948FCF713FCD7E70130FFF717FA7748CA
:104E7000FCF70CFCD0E7FCF749FCCDE7744B6C2247
:104E80001900063416A8984616F05EFE71492000F7
:104E90001DF0C4FB060036AF02002100380016F0FA
:104EA00053FE3800BD5516A9FFF7B2FD002800D00B
:104EB0009BE016A96C22404616F046FE2623424689
:104EC000D05CFEF709FCFEF71DFA42462523D05CB4
:104ED000FEF7D6FD0D2260494BE7FFF70FFD2021BD
:104EE00003005E4A36A818F09FFA36A81DF080FD30
:104EF00036A902003DE72522554B985CFEF7C0FD20
:104F00000120FFF7F5FC0A22554932E72522504BD4
:104F1000985CFEF7B5FD0020FFF7EAFC0A22514934
:104F200027E74B498B798E7A14932523CA791592FA
:104F3000087A0A7913900C7BCF7AA046CC5C0233B6
:104F4000A146CC5C0133A246CC5C4D7AA34649799C
:104F5000454B920016ACD3582000444A0091802162
:104F600018F062FA5946099151460891494607914D
:104F7000414606911599139801918021149B36ACF6
:104F80003B4A059702900093090116AB2000049656
:104F9000039518F049FA20001DF02AFD071E00D1E4
:104FA000EAE6002501200021404219F007F8002020
:104FB00019F0CCFE83B2002B11D00004000C7E1B34
:104FC000864200D9060061193200002019F09CFECB
:104FD000AD19002019F05AFEAF42E3D8CCE601200B
:104FE00014F0B0FEBD42DDD3C6E610222149C0E672
:104FF00024F7FFFF00910210309202105492021029
:105000007892021098920210B8920210DC9202106C
:10501000FC920210009302101493021028930210C5
:10502000409302104893021074930210AC8902104E
:1050300008910210DC0800008892021040920210D1
:1050400064920210A8920210CC920210EC9202100C
:105050007C100020FF030000509302100893021000
:105060001C93021034930210B0640410409002109C
:105070005C9002106093021030B5037802000100CA
:10508000002B21D04424214D06E010000B70437802
:10509000421C0131002B17D0501C222B29D05C2B35
:1050A000F3D15378752B11D0222BEFD05C2BEDD0A0
:1050B0002F2BEBD0622B21D0662B21D06E2B21D051
:1050C000722B21D0742B17D0002030BD9378EB5C6D
:1050D0001C42F9D0D378EB5C1C42F5D01379EB5C21
:1050E0001C42F1D05379EB5C1C42EDD03F23501DA4
:1050F000CCE700230B70E8E70923C7E70823C5E7DF
:105100000C23C3E70A23C1E70D23BFE7511A071099
:1051100001230C38836000687047C0460C388268F1
:1051200043689A4207D2531C8360930001689B181E
:105130009B00C81870470020FCE7C046F0B505008A
:1051400004E0451C00780132A04217D114782800F1
:10515000002CF6D12E782C2E12D00F4A02E001320C
:10516000A6420DD01478002CF9D10C4A140002E0AC
:105170000134BE4209D02778002FF9D10020F0BDBC
:10518000064A02E00132A64204D01478002CF9D17C
:105190002C70681C0B74F2E78C9302108893021039
:1051A000F0B557464E46DE464546E0B50378924692
:1051B0007B3B5A1E934183B00B741F2389469B4649
:1051C000B54B4578B54F461C0193002D63D03B008D
:1051D00002E00133AC4266D01C78002CF9D1327861
:1051E0002C2A00D170E04B461B7C591E8B4159463E
:1051F0005B428B437D339A425AD0534650465B689C
:1052000098478046002846D04B461B7C012B5ED039
:105210003378222B3FD14346701C5860FFF72CFF98
:10522000002838D00178002935D03B0002E0013356
:105230008A423BD01A78002AF9D103783A2B2AD136
:105240004178002927D0461C3B0002E001338A4206
:105250001DD01A78002AF9D10023424613604B462C
:105260009B68002B3BD04B46DB681A6042464B469E
:10527000DA60966032784346222A3AD013005B3BCC
:10528000DBB2202B40D801999B00CB589F46717808
:1052900001360029D8D1002003B0F0BCBB46B2468D
:1052A000A946A046F0BD013635788EE70130B9E752
:1052B0004B4634701B68701C002BEDD04A461460BE
:1052C00075789946060080E7757801367DE70023FA
:1052D0004246446013604B469B68002BC3D14B464B
:1052E0009A6042464B46DA60966032784346222AFC
:1052F000C4D1701C9860FFF7BFFE061ECBD00223FE
:1053000042461374057860E734002D2A01D1727883
:10531000741C0420624B995C0842BCD0302A00D136
:1053200090E0002A05D1B6E762780134002AB2D0B5
:10533000995C0842F8D1042241460A7425782E2D42
:1053400000D187E0202229009143452953D02C2DFC
:1053500039D004213B0002E00133AA4231D01A784F
:10536000002AF9D14F4B02E00133AA4229D01A7822
:10537000002AF9D18FE700234246137493604A460E
:1053800043461A607578C14601361EE7464A30002A
:1053900003234146FFF7D2FE0600002E00D17AE734
:1053A000357812E7300006234146404AFFF7C6FE33
:1053B0000600F2E73E4AEAE701234246137400235F
:1053C000DCE7042908D13278A31B2D2A72D0132BD5
:1053D00000D960E700D17DE026002578314A03E05E
:1053E0000132AB4200D1F2E61378002BF8D1657898
:1053F0002370661CE9E66178FD2208002B38104214
:105400001DD0621C595C490700D444E7541C5278F3
:10541000002A00D13FE7042104E062780134002A29
:1054200000D138E79A5C1142F7D105234246137444
:1054300025782C2D01D005218CE72600CEE7A17818
:10544000A21CDFE76178621C595C084200D022E7A9
:10545000140070E76178595C0A4200D11BE7A2781A
:10546000A11C002A00D116E70C00042104E0627898
:105470000134002A00D10EE79A5C1142F7D10522CF
:1054800041460A7425781B32290091434529B2D040
:105490002C2DA1D005215DE77C6504108C930210B2
:1054A000511A07108893021094930210A4930210CB
:1054B0009C930210142B00D9EDE68DD106480023F1
:1054C000310023701DF040FA002800DAE3E62600E0
:1054D000257083E70148F2E71466041000660410A3
:1054E00070B584680D00002C0AD06068002804D0D4
:1054F00029001DF029FA002802D02468002CF4D1DC
:10550000200070BD70B5174B86B00D00019104935B
:105510000178154B01AE7260336100290DD0134C38
:10552000230002E001338A4217D01A78002AF9D109
:10553000202103788B435B2B03D00025280006B085
:1055400070BD5A3B6A602A60AA60290004AAB36051
:10555000FFF726FE0028F1D1EFE74178013000295E
:10556000DED1EAE7115100101D5100108C9302109A
:10557000F0B5454657464E46DE46E0B58FB018AD0D
:1055800010CD94462F780725267835406A1E954120
:10559000A8466578F608B044002D00D192E0464652
:1055A000002E00D18EE06246013A0C920122591879
:1055B000DE0091460632A4460A96444600268846F6
:1055C000924619002B006246D57809947D1B5D43F5
:1055D00043465B1A9B46AD19654305355C460B9502
:1055E0004D460C9B6D1A5B180593434607940022A9
:1055F00064468C46390006950D9603930B9B0892E2
:10560000E518AB5C059F1A0008250B006146A4460F
:1056100005E0013DEDB252087F18002D37D04C4611
:105620001442F6D0069CE619079C0029F1D0E0460A
:105630008B469C4604920378310002959C4217D217
:10564000427891420ED2CA085343C2684D46019235
:1056500052460A4095402A00019D1B19ED5C2A43E1
:10566000019DEA54B94203D0037801319C42E7D34B
:10567000039B0134029D9C42DDD15946049A013DB1
:10568000EDB263465208C4467F18002DC7D10A9D6B
:105690006446A8468C461900059B089A4344059326
:1056A000099B01329342A9D10F006146A446039B96
:1056B0000D9E9846634601365B78F2B2099C884499
:1056C0009A4280D30FB0F0BCBB46B246A946A04672
:1056D000F0BDC046F0B5DE46574645464E46E0B5FD
:1056E0000F009A468BB0149B0600C8B242499B46F5
:1056F000D3B2394098461B020B4351461500D208DD
:10570000D2B2140423431B0209061B0A0B43336065
:105710005B46504373603061013016F0B7F9F060BA
:10572000002867D0354B03AC03934346013B2371FC
:10573000D32363718023DB01E3808D232372337ACB
:105740000130F0606D00002B48D11423BD424BDBCB
:105750001221F12263722A4B25276381DA232373F6
:105760005A3BFF3BE3815933FF332374254B61736D
:105770006382254B6274089300232376234B6F4486
:105780009846234B02AD99460CE0013003D14146C7
:10579000204818F063F90134A74217D073689B467C
:1057A000F3789A46002322782B706A705146009352
:1057B0002A00023358461AF0C3FB831CE5D1414648
:1057C0004846013418F04AF9A742E7D101200BB04E
:1057D000F0BCBB46B246A946A046F0BD1023BD4270
:1057E00005DB12212222B5E70221F122B2E70221D4
:1057F0002222AFE73061EAE7FF00FFFFAED580A8C5
:10580000A1C8FFFFDB300000A4A6AF20AC930210BC
:10581000DC930210BC93021070B51B4B84B003AD37
:105820002B80002304000E002A00C17840680093FA
:1058300002331AF085FB831C20D0013014D00023E2
:105840006E702B70E17860682A00009302331AF0C2
:1058500077FB831C0DD0013001D004B070BD0B4923
:105860000B4818F0FBF8F8E70849094818F0F6F873
:10587000E5E70649074818F0F1F8EEE7034905485F
:1058800018F0ECF8DBE7C0460081FFFFAC93021094
:10589000BC930210DC930210030010B50021C06815
:1058A0001A6916F04BF910BDF8B557464E464546F5
:1058B000DE460C00E0B5060017001D0099423CDCF6
:1058C00056D00A9B981A15F063FD8046281B15F0E8
:1058D0005FFD011C404615F0E4FC8246380015F0DF
:1058E00057FD6B1C98460723814600279B46357859
:1058F000A54218D9380015F04BFD514615F0E5FCCE
:10590000494615F0CBFC15F093FD737898420AD206
:10591000C3085D435B46184001238340F2682D199C
:10592000515D0B435355013401374445DFD1F0BC81
:10593000BB46B246A946A046F8BD0A9A07230127EE
:105940009C463378AB42F2D971788A420BD2D108A7
:105950004B4361463C0011408C402100F0685B19CC
:10596000C45C2143C1540A9B01329A42E9DDDEE75F
:105970000A9B9A42E2DD1A00E0E7C046F0B54F46C6
:105980004646D646C0B582B00B9E984633788246CE
:1059900091460F000A9D002B17D0EA7801369A42F3
:1059A0000AD82A799A4207D301934A4643463900D6
:1059B00050460095FFF7DCFDAB786C78E418434661
:1059C0005C433378E719002BE7D102B0E0BCBA465C
:1059D000B146A846F0BDC046F0B5DE4657464E4635
:1059E0004546E0B583B00C9C9946237882469346A1
:1059F0000D00002B19D0104FFA787E789046BA78B7
:105A0000B6184A465643013443450AD33A799A4276
:105A100007D301935A464B46290050460097FFF79B
:105A2000A7FD23787519002BEDD103B0F0BCBB4660
:105A3000B246A946A046F0BD2C660410F0B5CE468D
:105A40004746212380B5027887B004AC2380531EDB
:105A5000A3702223E3700023237183780500013BA8
:105A60006371402A03D1202363703F33A37016274C
:105A7000224B6F449846224B03AE994608E0013012
:105A800003D141461F4817F0E9FF0134BC4213D04F
:105A90000023227833707270E978686832000093CE
:105AA00002331AF04DFA831CE9D1414648460134CD
:105AB00017F0D4FFBC42EBD140220024EB68013B3D
:105AC0001A702B69EA68E97868680133013A009432
:105AD0001AF036FA831C0BD0013004D007B0C0BCDA
