:020000041000EA
:1000000000B5324B212058609868022188439860DF
:10001000D860186158612E4B002199600421596104
:100020000121F02299502B49196001219960352056
:1000300000F044F80222904214D00621196600F024
:1000400034F8196E01211966002018661A6600F04E
:100050002CF8196E196E196E052000F02FF8012189
:100060000842F9D1002199601B49196000215960AB
:100070001A491B48016001219960EB211966A021F2
:10008000196600F012F800219960164914480160C1
:100090000121996001BC002800D000471248134993
:1000A000086003C880F30888084703B5996A0420EC
:1000B0000142FBD001200142F8D103BD02B5186610
:1000C0001866FFF7F2FF186E186E02BD00000240BE
:1000D000000000180000070000035F00212200005C
:1000E000F4000018222000A00001001008ED00E03C
:1000F000000000000000000000000000070B8FD58A
:1001000000200420F7010010CB010010CD010010E9
:10011000C9010010C9010010C9010010C901001077
:10012000C9010010C9010010C9010010CF01001061
:10013000C9010010C9010010D1010010D301001045
:10014000C1010010C1010010C1010010C101001067
:10015000C1010010C1010010C1010010C101001057
:10016000C1010010C1010010C1010010C101001047
:10017000C1010010C1010010C1010010C101001037
:10018000C1010010C1010010C1010010C101001027
:10019000C1010010C1010010C1010010C101001017
:1001A000C1010010C1010010C1010010C101001007
:1001B000C1010010C1010010C1010010C1010010F7
:1001C000EFF30580103800BE00BE00BE00BE00BECA
:1001D00000BE00BEF2EB887198290710B8290710FD
:1001E0003802001090A31AE71E481F49086006C88D
:1001F00081F3088810471D480068002801D019487D
:10020000F3E70DA40ECC002902D000F012F8F9E7B4
:100210001749184A002000E001C19142FCD116495B
:100220008847164988471649884700BEFDE701C937
:1002300001C29A42FBD37047B8290710C0000020C2
:10024000C8220020C04B071000000420000004203A
:10025000C04B071000100420001004200000000014
:10026000704700000000000008ED00E0000000D032
:10027000C8220020646F0020C9DB0110BD0D0010F2
:1002800089DB0110F8B5C04606480749091A8B10EA
:10029000C90FC91810B5491003D0044B002B00D06A
:1002A000984710BDC8220020C8220020000000008E
:1002B000054B10B5002B03D00449054800E000BFF2
:1002C000FFF7E2FF10BDC04600000000903800209C
:1002D0003C8D0210F0B589B0040001F0A1F9254B66
:1002E0001B78002B04D1192001F054F809B0F0BD9F
:1002F000214D280005F0BCFD0022204B11002800F4
:100300000093012305F054FE01230C220021280054
:10031000009405F04DFE1A4B1B78002B11D102AC56
:100320002200184B03CB03C21B7813702800012353
:1003300018220021009405F03BFE280005F06AFE1B
:10034000D1E71EF0A3F80028E9D01EF08FF80600D0
:1003500000201EF011FF070000201FF0E5F902AC9D
:100360000190330018212000074A00971DF048FB38
:10037000DCE7C0464E6F0020B06A0020408D0210BE
:10038000606F0020548D0210488D0210D02212069A
:1003900010B553685268DB042648DB0F9204D20F75
:1003A0005B00134302785BB223499200DCB2134333
:1003B000C956224B0470187800291ED0204A1378A1
:1003C0005B185BB2012B15DD01231370844210D141
:1003D000FA241C4B1C49986A0B682401C31AA342D7
:1003E00005D31A4C0860238801331BB223800023F5
:1003F000137010BD591C18DB13708442F9D100230F
:100400000F4AD356002BE3DCF1D0FA240D4B0E49F2
:10041000986A0B682401C31AA342E8D30B4C086006
:100420002388013B1BB22380E1E7FF231370844242
:10043000EBD0DEE7546F00200C660410536F0020F1
:10044000526F002000400540C86A0020306F002035
:10045000F0B5CE46474680B583B088465D1C110096
:100460001A006B46EDB2EC1DE408E4001B1B02AF62
:100470009D46002306000920994602AC237068447B
:100480001BF04EFE4B462200009341462B003000ED
:1004900020F042F8BD4601B0C0BCB946B046F0BD40
:1004A000F0B5C64600B51AF023F9002900D1DFE007
:1004B000FA22002392001AF035FE00273900C84DB9
:1004C00006002A686B68801A99410A1E00D0C2E0B3
:1004D00096235B00984200D9BDE00122D023110091
:1004E0001B065B68BF4C194023788846002B00D060
:1004F0000FE1002900D0BFE143462370D0238022C2
:100500001B065B6852001340DA05D20F90466278F2
:10051000002A00D0E1E0002B00D0B2E14346637036
:10052000D02380221B065B68D20113405A04D20FED
:100530009046A278002A00D0B3E0002B00D096E1CC
:100540004346A370D0231B065A688023A64C134051
:1005500022781D06ED0F002A00D08EE0002B00D07F
:1005600009E1D0231B065A684023134062782570A6
:100570005D06ED0F002A00D1E7E0002B00D1DEE19F
:10058000D0231B065A6820231340A27865709D066D
:10059000ED0F002A00D00EE1002B00D043E1D02364
:1005A0001B065A6810231340E278A570DD06ED0F94
:1005B000002A00D004E1002B00D03DE1D0231B062F
:1005C0005A68082313402279E5701D07ED0F002AB1
:1005D00000D0FAE0002B00D037E1D0231B065A6888
:1005E00004231340627925715D07ED0F002A00D0C6
:1005F000F0E0002B00D031E1D0231B065A68022323
:100600001340A27965719D07ED0F002A00D005E126
:10061000002B00D0B9E0A571EFF3108272B6002173
:10062000724B1C88198024B282F31088704B9B7A1D
:10063000002B0AD1002C00DCB1E0013C012001F0CC
:10064000A1FCA3B224B2002BF7D10A2019F066FE58
:1006500080BCB846F0BD674C2378012B00D881E000
:10066000654B1878654B1B6898470023237034E767
:10067000FA2189001AF018FD1FE7002B00D070E75F
:1006800000255F4B5F4A1D701368EEB201331360A3
:100690005D4B30001B6898475C4B1E700023635510
:1006A000BAE7002B00D04BE7594B9B78002B00D1C9
:1006B000FCE02A686B6830003900801A99410A1EF4
:1006C00004D196235B00984200D224E14A4B0121D9
:1006D000484A2E606F601170EDE0002B00D01DE7DE
:1006E0004B4B5B78002B00D1D0E02A686B68300060
:1006F0003900801A99410A1E04D196235B00984262
:1007000000D212E13C4B01213A4A2E606F60117019
:10071000C1E0002900D0EFE63D4B1B78002B00D153
:10072000BCE02A686B6830003900801A99410A1EC3
:1007300004D196235B00984200D2E2E02E4B0121C7
:100740002C4A2E606F601170ADE0002B00D117E7CE
:100750002E4B1B78012B00D1B5E02E4B01201B68DE
:1007600098470DE7012B00D07FE7234B18782A4BE1
:100770001B68984779E7254B1B78002B00D19DE03B
:10078000244B00201B689847EBE6204B1B78062B78
:1007900000D1B1E01F4B06201B6898473BE7002CB7
:1007A00000D152E701200134404224B201F0EAFBBB
:1007B000002CF7D149E7002B00D0F0E6022560E7D6
:1007C000002B00D0FAE603255BE7002B00D004E7FE
:1007D000042556E7002B00D00EE7052551E7C0465B
:1007E00000270020945A0020D06A0020306F00209B
:1007F0007C110020566F0020556F0020885A002081
:1008000076110020985A0020CC6A0020576F0020F3
:1008100078110020DC6A00208C5A0020002B00D0C8
:10082000F9E606252DE7474B1B78022B50D0464BA7
:1008300002201B689847B2E6424B1B78032B4CD032
:10084000414B03201B689847B8E63E4B1B78042BAE
:1008500048D03D4B04201B689847BEE6394B1B78B7
:10086000052B44D0384B05201B689847C4E6374B0E
:1008700002201B68984763E6344B00201B689847AA
:100880003AE6324B01201B68984747E6304B01207F
:100890001B6898472F4B01221A703FE62C4B002013
:1008A0001B6898472B4B00221A7025E6284B022024
:1008B0001B689847274B02221A7041E6264B0020FE
:1008C0001B6898475CE7244B01201B68984744E766
:1008D000214B02201B689847A9E71F4B03201B6888
:1008E0009847ADE71C4B04201B689847B1E71A4BAB
:1008F00005201B689847B5E7174B06201B689847EB
:1009000048E7144B1A78002A00D018E713490A78F0
:1009100001320A70C7E70F4B1A78022A00D0D6E6D8
:100920000E490A7801320A70C5E70A4B1A78012A83
:1009300000D0E8E609490A7801320A70ABE70125E0
:100940009FE6C046576F0020DC6A0020905A0020C6
:100950008C5A0020556F0020D86A0020566F002066
:10096000F0B5CE46474680B54579040085B0002DE8
:1009700000D196E006001A36032D00D1CEE0002704
:10098000B146B846002530881AF0E9FF72491AF0DE
:1009900074FF041C1BF044F8704A714B1AF040FEBF
:1009A00000280FD028001AF0DAFF211C1AF079FF76
:1009B000011C40461AF05EFF211C8046381C1AF0CC
:1009C00059FF071C013502361A2DDCD10021381CD5
:1009D0001AF0B4FF00285BD04046391C1AF04DFFD6
:1009E00060491AF04AFF002180461AF09FFF002854
:1009F0004ED000260025371C4B4618881AF0AFFF52
:100A000055491AF03AFF041C1BF00AF8534A544B9C
:100A10001AF006FE002818D028001AF0A0FF51494D
:100A20001AF02BFF41461AF022FF011C1AF039FF81
:100A3000211C1AF036FF011C381C1AF01BFF211C68
:100A4000071C301C1AF016FF061C02239C460135B9
:100A5000E1441A2DD0D10021301C1AF06FFF002183
:100A6000002809D0311C381C1AF007FF1AF0DEFFED
:100A70003D491AF016FF011C3C4B40461B68984745
:100A800001233B4C237005B0C0BCB946B046F0BD55
:100A9000374C2378002B02D0364B1B689847002335
:100AA000F0E704236A4693730E220179033B006842
:100AB0006A4400951FF030FD21792068A21D14239F
:100AC00000951FF033FDA379E279E371A271237AD7
:100AD000627A63722272A37AE27AE372A272237B51
:100AE000627B63732273A37BE27BE373A273237C39
:100AF000627C63742274A37CE27CE374A274237D21
:100B0000627D63752275A37DE27DE375A275237E08
:100B1000627E637622761A34260030E704236A4622
:100B20000025D3730F220179033B00686A440095C6
:100B30001FF0F2FC217920683423320000951FF069
:100B4000F5FC33004E341A7859785A701970023314
:100B5000A342F8D113E7C04600FF7F479A999999BD
:100B60009999A93F0000C84100002041146F00205E
:100B70005D6F0020186F0020F8B54746CE463A4B0F
:100B800080B59946394BD0270024984601263F0668
:100B90004B461D5D280018F033FD3300AB400022AA
:100BA000BB620121280018F083FC43461E55013426
:100BB000032CEDD12E4BD02799462E4B002498467E
:100BC00001263F064B461D5D280018F019FD330035
:100BD000AB400022BB620121280018F069FC4346AB
:100BE0001E550134072CEDD10C2018F009FD80238F
:100BF0005B01BB62002201210C2018F059FC0D2082
:100C000018F0FEFC80239B01BB62002201210D2015
:100C100018F04EFC7B687A68DB04DB0F9204D20F7D
:100C20005B001343144ADBB21370144A0C21137097
:100C30000023134A0C201370124A1380124A1360C7
:100C4000124B012218F074FC01220C210D2018F027
:100C500043FC192018F0D4FC80239B047B62C0BCA9
:100C6000B946B046F8BDC04624660410945A002028
:100C70001C660410D06A0020546F0020536F0020BF
:100C8000526F0020306F0020C86A00208D030010D2
:100C900010B50B490B481FF017FC03211C2018F05E
:100CA000EDFB03211D2018F0E9FB002201211C208F
:100CB00018F0FEFB002201211D2018F0F9FB10BDE9
:100CC000801A0600E01B002010B51C4B04001B78A6
:100CD000052B05D81A4A9B00D3589F4601F0E6FD24
:100CE0002522184B985C02F0CBFE052C05D8164A3D
:100CF000A300D3589F4601F085FD144B1C7010BD16
:100D000002F09EFAF9E701F027F9E9E701F052FF56
:100D1000E6E701F0E3FAE3E702F09CF9E0E702F02E
:100D2000DFFADDE701F0C4F8E7E701F0FBFEE4E7F6
:100D300001F08CFAE1E702F041F9DEE7436F0020B1
:100D4000DC6504107C110020F4650410586F00204D
:100D500070B5174C174D82B000201EF027FA0028FE
:100D60001AD06B460122D91D00201EF02DFAFF2358
:100D7000002805D06B46DB790D2B0FD00A2B0DD048
:100D800022680D498A42E7DC511C00202160AB54E7
:100D90001EF00CFA0028E4D102B070BD2368002BCD
:100DA000DAD000260348C65404F062FA2660D3E77E
:100DB00050380020642F0020FE030000F0B5DE460E
:100DC0004E4645465746E0B58DB000F007FCE34877
:100DD000FFF780FA1FF026FAE14800F01DFBE1481A
:100DE000FFF778FAFFF7C8FE1D221C21DE4800F04D
:100DF00013FB1B231A220F21DC4800F00DFBDC4CF7
:100E000000222000002100F007FB20000822012121
:100E100000F002FB200000240E22022100F0FCFA68
:100E2000D44ED54D2100325D2800013400F0F4FA93
:100E3000072CF7D10D220C21D04800F0EDFAFA2052
:100E4000400019F06BFACE48FFF744FA012301265F
:100E500006AC2100238000201DF022FBC94B1E7030
:100E600000F0D2FBFA20400000F094FAC648FFF7E9
:100E700031FAFFF70DFFC54800F0CEFAC448FFF77E
:100E800029FA0023C34FC44D40222B7280213C33EA
:100E90002800009704F00AFFFF21280004F0A8FFB3
:100EA000BE4BBF481E70FFF715FABE48FFF712FA97
:100EB0002623BD4EF05C02F027FCBC4800F0ACFAE3
:100EC000BB48FFF707FABB4B2200202138002380E4
:100ED0000223FFF7BDFA192019F020FA022323801C
:100EE0000733220020213800A370073BFFF7B0FA38
:100EF000192019F013FAFC235B42220020219846A6
:100F000038002380FE33FFF7A3FA192019F006FA00
:100F100006232200202138002370053BFFF798FAB2
:100F2000192019F0FBF9A44B20219B461F60C82310
:100F30005A469B00938088235B0023800F3B22004E
:100F4000FF3B3800FFF784FA192019F0E7F9434610
:100F500023805B462200197918680223FFF778FA8C
:100F6000192019F0DBF92021944800F055FA944833
:100F7000FFF7B0F9280004F07BFF924B18220A21FA
:100F800028000093022305F013F8280005F042F82A
:100F90008D48FFF79FF902F0B5F900F089FF8B4803
:100FA00000F03AFA8A48FFF795F902F067FC8948A1
:100FB00000F032FA8848FFF78DF988481DF094F860
:100FC000874800F029FA8748FFF784F9864B039396
:100FD0001B78002B00D1A4E0844B9946844B0493EA
:100FE000844B9846844B9A460120002140421DF0D4
:100FF000D1FA4B461B78002B00D0A7E0049B1B784E
:10100000002B00D016E1FFF74BFA4346B07A1B786D
:10101000834204D0FFF758FE4246B37A1370584615
:10102000FFF79EFC280004F023FF53461B689847F7
:10103000724B1B6898472823F35C002B4DD0704BF4
:1010400070491B780968704A5BB200912000182132
:101050001CF0D6FC012308224A212800009404F049
:10106000A7FF6A4B6A491B7809686A4A5BB200911C
:10107000200018211CF0C4FC012310224A21280062
:10108000009404F095FF644B64491B780968644A36
:101090005BB20091200018211CF0B2FC18224A21FA
:1010A00001232800009404F083FF2723F35C0593B9
:1010B0001DF0DCF9070000201EF036FB1821594A0C
:1010C000059B0190009720001CF09AFC0123202230
:1010D0004A212800009404F06BFF280004F09AFFD6
:1010E00019F006FB00292CD0FA22002392001AF0F6
:1010F00019F84D4A4D4913680968C01A884218D337
:101100004B4F5B18387813601FF08EF801223B7844
:1011100053403B70FFF71CFE039B1B78002B00D055
:1011200062E700200DB0F0BCBB46B246A946A0461F
:10113000F0BDFFF70DFE039B1B78002B00D053E79B
:10114000EFE7FA21890019F0AFFFD2E72523F05C21
:1011500002F096FC00234A4613704FE7608D0210A0
:10116000688D0210788D0210808D0210988D02100B
:10117000BC8D02101C660410D08D0210E08D021090
:10118000FC8D0210606F0020008E0210048E021091
:10119000108E0210E01B0020B06A00204E6F00206D
:1011A000188E0210248E02107C110020308E021046
:1011B000448E021001030000385A00204C8E0210A9
:1011C000688E0210748E0210808E02108C8E0210B7
:1011D0009C8E0210A48E0210B48E02105D4B001083
:1011E000C08E0210D88E02107B1100205F6F00208D
:1011F0005E6F0020436F0020C46A00201C6F002037
:1012000076110020985A0020EC8E021075110020F3
:10121000A86A0020F48E021074110020AC6A00202D
:10122000FC8E0210048F0210183A0020501100208A
:101230003E6F002025230024F05C02F021FC039B7C
:1012400028001C7004F014FE084B0A211822280004
:101250000093022304F0ACFE280004F0DBFE3220F1
:1012600019F05CF82100200019F08EFDE08E0210CC
:10127000FA22054B920010B51A600122034B044874
:101280001A7000F0C9F810BD501100205F6F0020E7
:10129000108F0210FA2210B5044B05481A60054B56
:1012A000F93A1A7000F0B8F810BDC046501100208D
:1012B0001C8F02105F6F0020054B064A10B51A60A4
:1012C0000122054B05481A7000F0A6F810BDC04673
:1012D00050110020C40900005F6F00202C8F021005
:1012E000FA22054B920010B51A600122034B044804
:1012F0001A7000F091F810BD501100205F6F0020AF
:101300003C8F0210F0B5C6460D00804600B500299E
:1013100004D000241E4E3378002B02D180BCB84686
:10132000F0BD1DF0B3F80028F8D01DF09FF800289C
:10133000F4D000201DF020FF0028EFD0D0231B06A2
:101340001B68002BEAD10120002140421DF022F948
:1013500000201DF0E7FF83B2002B12D00004000C28
:101360002F1B874200D9070043463A001919002075
:101370001DF0B6FFE41900201DF074FFA542CAD885
:10138000CCE7012018F0CAFFA542C4D8C6E7C04682
:10139000516F0020F8B5040019F0AAF9194B0600A6
:1013A0001B780F00002B00D1F8BD1DF06FF800284E
:1013B000FAD0D0231B061B68002BF5D1FA2220009F
:1013C0000023002192001AF035FA801979410400B7
:1013D0000D1E12DB2F000C4E0120002140421DF09B
:1013E000D9F8012018F09AFF736A9F42F4D8B26AC4
:1013F000A242D9D29F42D7D1EEE70124034D6442E5
:10140000E8E7C046516F002000400540FFFFFF7F26
:1014100000487047541100200FB4F0B5DE4657461F
:101420004E464546E0B5B3B019F062F900293CD00C
:10143000FA220023920019F075FE030002AFC021CA
:101440005F4A38001CF0DCFAC02104003DAB091AE9
:101450003C9A381801931CF0E7FA00281BDB0019AE
:10146000BF2828D9BD230D22FA540133033AFA527A
:10147000544BBF261A78002A2BD18023524D5B0192
:101480002C689C4200D273E00122504B1A70504BE2
:101490001B78002B42D133B0F0BCBB46B246A94604
:1014A000A046F0BC08BC04B01847FA21890019F026
:1014B000FBFD0300C2E7861CBF2ED3D80D233B548F
:1014C000033B381843700023BB553E4B1A78002A63
:1014D000D3D0404C2168EFF3108072B60A68002A1E
:1014E000FCD0BFF35F8F384D1B78606099462B6846
:1014F000984680235B0198454BD30122334B1A70E9
:101500004B46002BC3D00CCCBFF35F8F0021116082
:1015100083F310882E4B1B78002BBCD01CF0B6FF39
:101520000028B8D01CF0A2FF0028B4D000201DF085
:1015300023FE0028AFD0D0231B061C68002CAAD1A4
:1015400000201DF0EFFE83B2002B0DD00004000C34
:10155000351B854200D9050039192A00002064197D
:101560001DF0BEFEA642EBD800201DF07BFE92E7E8
:101570001B1B9846B1469E421FD817484A46201862
:1015800039004C441AF0CCFD2C60464500D87EE76B
:101590007AE742469B1A9A46B3469E420BD80E48BB
:1015A0005A46390040441AF0BBFD43465B442B6069
:1015B0005645A5D9A1E79B46F1E79946DDE7C04628
:1015C000488F02104F6F0020A46A0020506F002047
:1015D000516F00209C5A0020A45A002010B5074CDF
:1015E0002378002B03D00648FFF716FF10BD0548EF
:1015F00018F0EAFB01232370F5E7C0464F6F002087
:10160000508F02109C5A0020012210B5024B034853
:101610001A70FFF701FF10BD516F00205C8F0210A0
:1016200070B5041E24D0134D2B78002B0AD0124B1A
:101630001968EFF3108072B60A68002AFCD0BFF375
:101640005F8F5860230020210C4A0D481CF0D8F908
:101650002B78002B07D0084B0CCBBFF35F8F0021FA
:10166000116083F3108821000648FFF7D5FE70BD96
:10167000054CD8E74F6F00209C5A0020748F021051
:1016800054110020788F02106C8F021070B5041E68
:1016900003D01C4D2B78002B00D170BD21F094FCA1
:1016A00006001CF0F3FE002819D12B78002BF4D093
:1016B0001CF0ECFE0028F0D01CF0D8FE0028ECD086
:1016C00000201DF059FD0028E7D0D0231B061B6821
:1016D000002BE2D102210C48FFF714FEDDE71CF0DD
:1016E000C5FE0028E1D000201DF046FD0028DCD01A
:1016F000D0231B061B68002BD7D131002000FFF739
:1017000001FED2E7516F0020848F0210F0B54E46E3
:10171000DE4657464546E0B57A4B9BB099461B7866
:10172000002B00D080E0784B00259846774B9B46F5
:10173000774B0193774B9A4643461E78002E17D17C
:101740005B461C68A54256D2641B602C00D96024FD
:10175000019B02AF22003800E9181AF0E1FC4B4669
:101760001B78002B2FD12D1943461E78002EE7D071
:1017700053461A68EFF3108172B61368002BFCD041
:10178000BFF35F8F5346596043461E785B461C6823
:10179000A54230D2641B602C00D96024019B02AFAB
:1017A0002200380059191AF0BBFC002ED7D053463E
:1017B0000CCBBFF35F8F0021116083F310884B4681
:1017C0001B78002BCFD01CF061FE0028CBD01CF082
:1017D0004DFE0028C7D000201DF0CEFC0028C2D04E
:1017E000D0231B061B68002BBDD121003800FFF75A
:1017F00089FD2D19B8E7484B1A78002E07D0454BC4
:101800000ACBBFF35F8F0020086083F31088002AA3
:101810004DD14B461B78002B2AD11BB0F0BCBB46E8
:10182000B246A946A046F0BD1CF030FE002855D1B6
:101830004B461B78002B00D175E71CF027FE0028D3
:1018400000D170E71CF012FE002800D16BE70020E9
:101850001DF092FC002800D165E7D0231B061B6811
:10186000002B00D05FE702212C48FFF74BFD5AE721
:101870001CF00CFE00281ED14B461B78002BCCD050
:101880001CF004FE0028C8D01CF0F0FD0028C4D0D5
:1018900000201DF071FC0028BFD0D0231B061B6860
:1018A000002BBAD102211D48FFF72CFDB5E71C48DB
:1018B000FFF7ECFEADE71CF0D9FD0028DCD00020DE
:1018C0001DF05AFC0028D7D0D0231B061B68002B24
:1018D000D2D10D211348FFF715FDCDE71CF0C6FD51
:1018E0000028A5D000201DF047FC0028A0D0D02360
:1018F0001B061B68002B9BD10F210B48FFF702FD35
:1019000096E7C046516F00204F6F0020A46A002068
:10191000A45A00209C5A0020506F0020848F02108F
:10192000988F0210AC8F0210888F02100048704709
:10193000D4660410004870472C66041070B5002867
:1019400023D003282CD8174B8000C558280021F03D
:101950003BFBC0B2041C1F2812D8E4B2002808D0F8
:101960000023114AE95C01331180D9B202328C4262
:10197000F8D8C0220134E3B25B00920013430CE0BC
:101980001F24E4B20028EBD1F3E7064B02221968CA
:1019900005481AF0C5FBC1239B000448038070BDB5
:1019A0000020FCE7E8110020A62B0020A42B00203B
:1019B0007047C0467047C046054A064B11781970FB
:1019C000054BD97911702322002199547047C046E4
:1019D000376F0020386F00207C110020F0B5CE4614
:1019E00047461A4D25222C0080B5194B85B00D3C79
:1019F000187006009146A05C164B627A98468021CA
:101A00001B7800922A0001F07DFF2323AA1DE35CCE
:101A1000A17903920295227A0F4F01923A780092AF
:101A20006068320001F082FC4A46A05C627A3B7832
:101A3000902100922A0001F065FF42463B78137026
:101A400005B0C0BCB946B046F0BDC0468911002003
:101A500000120020386F0020376F002001280ED0C0
:101A6000022805D0002802D10122084B9A72704743
:101A7000064A9379062BFAD801339371F7E7034AA4
:101A80009379002BF3D0013B9371F0E77C11002098
:101A9000FF2270B5124B84B01A706223114CE55CC2
:101AA000002D01D004B070BD2600DA3AA05C0E4BC8
:101AB000627A0D361B7880210092320001F022FFFD
:101AC00023001333A17903930296237A009501939F
:101AD00000220023606801F029FCE574E2E7C046BB
:101AE000001200207C110020386F0020F0B5454620
:101AF000DE4657464E46E0B5904C87B0E37C051C69
:101B0000002B00D198E08E4F00213B78984642464A
:101B10008C4B1A709A466123E35C994619F0F8FEE3
:101B2000002800D000E18849281C19F0BAFE19F0FD
:101B30003DFF4B460600002B00D190E0012B00D169
:101B400081E0824B99461B68B34273D00D239B46BC
:101B500004ADA3440622594628001AF0E1FA2000F9
:101B600023237B4A13301278A179E35C0390584613
:101B70000290207A019040460090606801F0D6FB08
:101B8000627B297891420AD0002900D077E0002AB0
:101B900005D02521637A605C6B3101F073FEA27B76
:101BA00069788A420AD0002900D07AE0002A05D05C
:101BB0002521637A605C6B3101F064FEE27BA978D9
:101BC0008A420AD0002900D07DE0002A05D02521D4
:101BD000637A605C6B3101F055FE227CE9788A42C1
:101BE00009D0002966D1002A05D02521637A605CDE
:101BF0006B3101F047FE627C29798A4209D00029C5
:101C000046D1002A05D02521637A605C6B3101F052
:101C100039FEA27C69798A4209D0002926D1002A9E
:101C200005D02521637A605C6B3101F02BFE5246B2
:101C30003B7813704B461E6007B0F0BCBB46B24603
:101C4000A946A046F0BDE679300019F08DFE291CAA
:101C500019F027FE19F0AAFE361A267271E7042839
:101C600000D96EE73B4A8300D3589F462522637A0A
:101C7000A05C0A00802101F005FEA27CCFE72522AE
:101C8000637AA05C0A00802101F0FCFD627B7EE7A4
:101C90002522637AA05C0A00802101F0F3FD627CBA
:101CA000AFE72522637AA05C0A00802101F0EAFDFB
:101CB000A27B7BE72522637AA05C0A00802101F0E9
:101CC000E1FD227C8FE72522637AA05C0A00802157
:101CD00001F0D8FDE27B78E7042308223B701F3334
:101CE000E2541F3B98462CE7042300223B701F332D
:101CF000E2541F3B984624E7052300223B701E3325
:101D0000E2541E3B98461CE7062300223B701D331D
:101D1000E2541D3B984614E7032308223B7020330E
:101D2000E254203B98460CE74B46012B02D001269B
:101D3000764206E70120E67940428DE77C110020DB
:101D4000376F0020386F00200000A040F8110020FD
:101D500000120020E86604107047C046F0B5CE4679
:101D6000474680B5484D87B0280021F02DF9402125
:101D700043001B185B00454C013BDBB2C91A200035
:101D800000950223133D182204F012F92B79404AE2
:101D90009B009858904621F017F96B793D4F9B00B6
:101DA0000600D85921F010F9FF2240211640B31D3A
:101DB00002409B185A009B185B00013BDBB25B089A
:101DC000C91ACBB29946344B4946200000930022F1
:101DD000012304F0EDF8424649462B7920009B0090
:101DE0009B58193100930022012304F0E1F8494681
:101DF00073009B195B001E31C9186B7920009B0092
:101E0000DB5900220093012304F0D2F8234B03AEE8
:101E100031000A2218681EF00DFE300021F0D4F8BF
:101E200005308300C01AC5B229001D4B4031200087
:101E3000009328220123C9B25E3504F0B9F8E9B253
:101E40003C25200001232822009604F0B1F8200050
:101E50001E233C220021009504F012F8114B2000B3
:101E60000193114B362200932521022304F072F8CE
:101E700080233C2260212000009504F001F807B087
:101E8000C0BCB946B046F0BD8F110020B06A00203A
:101E9000FC66041040670410EC8F0210FC11002057
:101EA000F48F0210FC8F02102C7204107047C04691
:101EB000124B134A1A60134B134A1A60134B144AFD
:101EC0001A60144B144A1A60144B154A1A60154BC9
:101ED000154A1A60154B164A1A60164B164A1A60B4
:101EE000164B174A1A60174B174A1A60174BDB79C3
:101EF000174A1370174A13707047C046C46A00200F
:101F00005D1D00101C6F0020B1190010CC6A00206C
:101F1000DD190010D86A0020911A0010DC6A002038
:101F2000B51900108C5A00205D1A0010885A002044
:101F3000AD1E0010905A0020591D0010146F002093
:101F4000ED1A0010186F0020B91900107C11002044
:101F5000386F0020376F0020084A10B514000D3C80
:101F6000617A074B82B01B78107E0091802101F0CE
:101F7000C9FC0023E37402B010BDC04689110020E3
:101F8000386F0020054A13681818642802DD6420A1
:101F900010607047C343DB171840F9E7FC110020BD
:101FA0007047C0467047C046F0B5C64600B5284DDC
:101FB0000021EF79EE7A041C7E4319F0A9FC002879
:101FC00043D1300019F0D0FC211C19F06AFC19F043
:101FD000EDFC204B341A1B78002B22D01E4E337898
:101FE000A34203D1347080BCB846F0BD25271B4AFC
:101FF0006B7A9046E85D1278802101F043FCE97924
:10200000200019F029F80C23584369184B7B9021C4
:10201000C0184346C2B21A706B7AE85D01F032FC18
:10202000E0E73900200019F017F80C23691858432D
:102030004B7B2521C018094BC2B21A70685C6B7AC1
:102040006B3101F01FFC044ECCE701204042C0E799
:102050007C1100205D6F0020011200203D6F0020E8
:10206000252010B50449054A4B7A085C1278802176
:1020700001F008FC10BDC0467C1100203D6F00201F
:10208000F0B5CE46474680B5384D83B0280020F0E5
:102090009BFF402143001B185B00354C013BDBB22A
:1020A000C91A200000950223133D182203F080FF77
:1020B0002B79304A9B009858904620F085FF6B7929
:1020C0002D4F9B000600D85920F07EFFFF224021B3
:1020D0001640B31D02409B185A009B185B00013B41
:1020E000DBB25B08C91ACBB29946244B49462000A3
:1020F00000930022012303F05BFF424649462B79FF
:1021000020009B009B58193100930022012303F00B
:102110004FFF494673009B195B001E31C9186B794C
:102120003C259B00DB59200000930022012303F093
:102130003FFF200028233C220021009503F0A0FE51
:102140000F4B200001930F4B362200932D210223C9
:1021500003F000FF80233C2258212000009503F06B
:102160008FFE03B0C0BCB946B046F0BD8F11002051
:10217000B06A002070670410B4670410EC8F02107E
:10218000BC9002102C72041010B50A4C0200200002
:10219000232384B01330E35CA179039020000D3039
:1021A0000290207A0190E0790090606801F0BEF81A
:1021B00004B010BD7C110020012809D0022800D0F5
:1021C0007047074AD379032BFAD80133D371F7E765
:1021D000034AD379012BF3D9013BD371F0E7C04611
:1021E0007C11002010B584B001280ED0022806D042
:1021F000002802D10322114B9A7204B010BD0F487F
:1022000081790629F9D8013104E00C488179012946
:10221000F3D9013904002323C9B2094A8171133467
:10222000C35C1278039404000D340294047A019480
:10223000C4790094406801F079F8DEE77C11002051
:10224000576F00207047C0467047C0460F4B104A7A
:102250001A60104B104A1A60104B114A1A60114B49
:10226000114A1A60114B124A1A60124B124A1A6034
:10227000124B134A1A60134B134A1A60134B144A39
:102280001A60144B144A1A607047C046C46A002092
:10229000812000101C6F0020A11F0010CC6A0020BC
:1022A00089210010D86A0020A51F0010DC6A0020D8
:1022B000492200108C5A0020E5210010885A002085
:1022C000B9210010905A002045220010146F002000
:1022D000A91F0010186F002061200010252110B5E3
:1022E000054A064C1278637A605C5B3101F0CAFAE9
:1022F0000023E37410BDC0463D6F00207C11002018
:102300000122014B1A7070475E6F0020014B18606C
:102310007047C046043900207047C046F0B5C64635
:1023200000B5012826D0022806D0002801D12B4B69
:10233000987280BCB846F0BD294C2A49227890009A
:10234000801880000B181D79002D22D09B68002B6F
:1023500002D00C3040189847234A1378002B05D040
:10236000013BDBB21370214AD35C23700022204B67
:102370001A70DEE71C4A1378002BF7D01B49013B8B
:10238000DBB21370164ACB5C13700022184B1A7024
:10239000CFE7174E9F7935785B79AB4208D97B1927
:1023A0009800C01883009846CB18187904280CD0E0
:1023B0000D490B78072BBCD8581C08700B49ED1938
:1023C000CA54002325703370B3E79B68002BB0D04C
:1023D00040460C3040189847ABE7C0467C110020BF
:1023E000396F0020081200203A6F0020103A0020B8
:1023F000446F0020F0B5C6464B4D00B500212E6855
:10240000041C19F085FA00280FD14849201C19F046
:1024100048FA19F0CBFA731C03D0831B9846B042DC
:102420000AD1286080BCB846F0BD3000731CF8D0DB
:10243000F3430120984640423D4B3E4E1B789C00A2
:10244000E2189200B21811790629EAD83A4F8A00A8
:10245000BA589746E3189B00F318D9680029E0D0D2
:1024600044460A78121B9C7912B2A24206DB5B79C1
:10247000013B1C1C934200DD141CE4B20C70D0E73D
:102480002E4A94461278424417B2120409D4E31833
:102490009B00F3185B79013B191CBB4200DD391C22
:1024A000C9B263461970BCE7E3189B00F318DA68F9
:1024B000002AB6D0224909685418525C4146521A83
:1024C000997912B28A4206DB5B79013B191C93426F
:1024D00000DD111CC9B22170A3E7E3189B00F318BB
:1024E000DA68002A9DD043464146DB175B1ADB0FB2
:1024F000137096E7E418A4003619F368002B00D196
:102500008FE70F4A12689C189B5C42469B1AB2796F
:102510001BB2934206DB717901390A1C994200DD36
:102520001A1CD2B222707CE7041200200000204165
:10253000396F002008120020E4670410446F002067
:10254000043900200122024B52421A607047C046F3
:1025500004120020262210B5024B985C01F0BCF852
:1025600010BDC0467C11002010B500F0CBFE10BDA0
:1025700010B5084C6C220849200019F0D1FD00204C
:1025800001F0AAF800F0BEFE2523E05C01F078FA25
:1025900010BDC0467C1100201C680410252210B517
:1025A000024B985C01F06CFA10BDC0467C11002013
:1025B0007047C0467047C0467047C0467047C04627
:1025C000F0B5DE464E46454657460723E0B5854FF3
:1025D00089B00722002138000093793303F050FCC2
:1025E000814B824E1C78A3001D19AD00984673598B
:1025F00075191800994620F0E7FC402143001B188C
:102600005B00013BDBB25B08C91A4B46002200931A
:102610003800012303F0CCFC2D79062D1DD8744A17
:10262000AB00D3589F464444A4003419E368002B00
:1026300013D01B7822699B009C58200020F0C4FC1A
:10264000402143001B185B00013BDBB2C91A182272
:1026500002233800009403F0ABFC09B0F0BCBB4689
:10266000B246A946A046F0BD624B05AD18680A22E5
:102670002900013099461EF0DDF9280020F0A4FC65
:1026800011308300C01A4030C3B29A465A4B072219
:10269000514638000093012303F08AFC5146012380
:1026A000072238006631009503F082FC2300434482
:1026B0009B00F618F368002BCFD04A461268290019
:1026C000985C0A221EF0B6F9280020F07DFC40211B
:1026D00043001B185B00013BDBB2C91A182202231E
:1026E0003800009503F064FCB7E7220042449200F2
:1026F0009346B3445B465B79002BAED00E239846DD
:102700003E4B9A4606235B4499463D4B0393330068
:102710004646984613E04246A3001B199B00D35837
:102720000521009332000123380003F041FC5B4691
:102730005B79AB4291D90836072D00D18DE74A4627
:10274000147852462B00127801351C19EDB2E4B210
:102750009A42E0D1039B320000930021012338000C
:1027600003F026FCD7E74444A4003419E368002BA7
:1027700000D172E705AC0A22210018781EF05AF940
:102780005BE705AB99461B4B0A22186849460130A6
:102790009A461EF04FF9484620F016FC113083008F
:1027A000C01A4030144BC5B20722290038000093EC
:1027B000012303F0FDFB4B4629004444A400009391
:1027C0000722012338006631341903F0F1FBE36876
:1027D000002B00D141E7524612689B5C22699B00A6
:1027E0009C582AE7B06A0020396F002008120020A8
:1027F0000068041004390020C8900210446F0020C3
:10280000C4900210124B134A1A60134B134A1A60F9
:10281000134B144A1A60144B144A1A60144B154A8D
:102820001A60154B154A1A60154B164A1A60164B5A
:10283000164A1A60164B174A1A60174B174A1A6045
:102840000023174A1370174A1370174A1370704702
:10285000C46A0020C12500101C6F0020BD25001097
:10286000CC6A00200D230010D86A00201923001024
:10287000DC6A0020B52500108C5A00201D230010B2
:10288000885A0020B9250010905A0020B125001068
:10289000146F0020F5230010186F0020452500104C
:1028A0003A6F0020396F0020446F00207047C04607
:1028B0007047C0467047C046F8B50E1C0F4918F067
:1028C000F0FF011C0D4818F0D2FF2527051C19F058
:1028D0009BF863230A4CC2B2E15CE05D01F0B2F800
:1028E000311C281C18F0DDFF19F08EF86423C2B2E9
:1028F000E15CE05D01F0A6F8F8BDC0460000FE42D4
:102900007C110020F0B5CE46474680B5384D83B0E7
:10291000280020F059FB402143001B185B00354C78
:10292000013BDBB2C91A200000950223133D182297
:1029300003F03EFB2B79304A9B009858904620F0DC
:1029400043FB6B792D4F9B000600D85920F03CFBD0
:10295000FF2240211640B31D02409B185A009B18CD
:102960005B00013BDBB25B08C91ACBB29946244B32
:102970004946200000930022012303F019FB424640
:1029800049462B7920009B009B5819310093002267
:10299000012303F00DFB494673009B195B001E31B8
:1029A000C9186B793C259B00DB592000009300225D
:1029B000012303F0FDFA20001E233C220021009594
:1029C00003F05EFA0F4B200001930F4B3622009369
:1029D0002521022303F0BEFA80233C22602120003F
:1029E000009503F04DFA03B0C0BCB946B046F0BD47
:1029F0008F110020B06A002088680410CC68041091
:102A0000EC8F0210289102102C720410F0B5134CB8
:102A100025272500627A85B00D35E37906008021EF
:102A2000E05D00922A0000F06DFF220023231332A4
:102A3000E35CA17903920295227A0192E2790092F5
:102A40006068320000F072FC627AE379E05D902108
:102A500000922A0000F056FF05B0F0BD7C11002066
:102A600030B50F4C25222500A05C627A85B00D356B
:102A7000E379802100922A0000F044FF2300A1792D
:102A80000295002513330393237A009501930022C6
:102A90000023606800F04AFCE57405B030BDC04614
:102AA0007C11002001280ED0022805D0002802D178
:102AB0000222084B9A727047064A9379062BFAD87D
:102AC00001339371F7E7034A9379002BF3D0013B6D
:102AD0009371F0E77C110020672310B50E4CE35C86
:102AE000002B04D16823E35C002B0CD110BD6523BF
:102AF000E25C023BE15C3E3BE05C00F0A3FF68234C
:102B0000E35C002BF2D06623E25C023BE15C3F3BDE
:102B1000E05C00F097FFE9E77C1100207047C046B9
:102B20007047C0460F4B104A1A60104B104A1A608B
:102B3000104B114A1A60114B114A1A60114B124A7C
:102B40001A60124B124A1A60124B134A1A60134B46
:102B5000134A1A60134B144A1A60144B144A1A6031
:102B60007047C046C46A0020052900101C6F002071
:102B7000B1280010CC6A00200D2A0010D86A00206D
:102B8000612A0010DC6A0020B52800108C5A002051
:102B9000A52A0010885A0020212B0010905A0020EE
:102BA0001D2B0010146F0020B9280010186F002092
:102BB000D92A001030B50F4C25252200617A83B048
:102BC000E379605D0D320091802100F09BFE65236A
:102BD000E25C023BE15C605D00F034FF6623E25C96
:102BE000023BE15C605D00F02DFF0023E37403B065
:102BF00030BDC0467C1100207047C0467047C046BB
:102C000070B52525074C084A605D637A80211278EB
:102C100000F038FE054A605D8021637A127800F08A
:102C200031FE70BD7C110020426F0020416F0020FA
:102C3000F0B54F464646D646C0B5514C0021E7791F
:102C4000E67A051C7E4318F063FE002800D094E06D
:102C5000300018F089FE291C18F023FE18F0A6FE9B
:102C6000484B351A1B78002B52D0474E3378AB4275
:102C700048D0464B464F19783A7898468A4200D158
:102C800079E02522637AA05C91460A00802100F059
:102C9000F9FDE179280018F0DFF90C235843611899
:102CA0004B7B4946C0184346C2B21A70605C637AD7
:102CB0006B3100F0E7FD3A782521637A605C5B3187
:102CC00000F0E0FDE379681C19009A4618F0C4F999
:102CD00028008946514618F0BFF90C23A1445843F7
:102CE0004B465A7B434612181B78D2B23A70934235
:102CF00002D90C32D2B23A702521637A605C6B3112
:102D000000F0C0FD3570E0BCBA46B146A846F0BD43
:102D10003900280018F0A0F90C2761184B7B2521F9
:102D200078431A4EC018C2B23270605C637A6B315D
:102D300000F0A8FDE379681C1900994618F08CF999
:102D400088462800494618F087F9A044434678434E
:102D50005A7B31780E4B1218D2B21A70914202D9B6
:102D60000C32D2B21A702521637A605C6B3100F0AC
:102D700089FD054EC6E71A709EE7012040426FE7C5
:102D80007C1100205D6F0020C81700203F6F0020DD
:102D9000406F002070B52525074C084A605D637AB6
:102DA0008021127800F06EFD054A605D8021637A13
:102DB000127800F067FD70BD7C1100203F6F00208D
:102DC000406F0020F0B5CE46474680B5384D83B001
:102DD000280020F0F9F8402143001B185B00354C17
:102DE000013BDBB2C91A200000950223133D1822D3
:102DF00003F0DEF82B79304A9B009858904620F07B
:102E0000E3F86B792D4F9B000600D85920F0DCF8D1
:102E1000FF2240211640B31D02409B185A009B1808
:102E20005B00013BDBB25B08C91ACBB29946244B6D
:102E30004946200000930022012303F0B9F84246DE
:102E400049462B7920009B009B58193100930022A2
:102E5000012303F0ADF8494673009B195B001E3156
:102E6000C9186B793C259B00DB5920000093002298
:102E7000012303F09DF820002C233C220021009523
:102E800002F0FEFF0F4B200001930F4B3622009300
:102E90003221022303F05EF880233C2254212000DB
:102EA000009502F0EDFF03B0C0BCB946B046F0BDDE
:102EB0008F110020B06A0020FC68041040690410E3
:102EC000EC8F0210849202102C720410F0B5C646EA
:102ED000252500B51C4C1D4A84B007009046637A36
:102EE000605D8021127800F0CDFC194E637A327853
:102EF000605D802100F0C6FC220023231332E35CD6
:102F0000A179039222000D320292227A0192E27993
:102F1000009260683A0000F009FA4346627B902113
:102F20000C3AD2B21A70A37B0C3B3370637A605DAB
:102F300000F0A8FC9021637A3278605D00F0A2FC7A
:102F400004B080BCB846F0BD7C110020426F002068
:102F5000416F002001280ED0022805D0002802D1A0
:102F60000422084B9A727047064A9379062BFAD8C6
:102F700001339371F7E7034A9379012BF3D9013BAE
:102F80009371F0E77C11002001280AD0022800D0BC
:102F90007047084BDA79032AFAD8DA7A0132DA7202
:102FA000F6E7044BDA79012AF2D9DA7A013ADA72D1
:102FB000EEE7C0467C1100207047C046104B114A16
:102FC0001A60114B114A1A60114B124A1A60124BC7
:102FD000124A1A60124B134A1A60134B134A1A60B2
:102FE000134B144A1A60144B144A1A60144B154AB6
:102FF0001A60154B154A1A600322154BDA71704797
:10300000C46A0020C52D00101C6F0020F92B001091
:10301000CC6A0020CD2E0010D86A0020012C0010B0
:10302000DC6A0020FD2B00108C5A0020552F001068
:10303000885A0020892F0010905A0020B92F0010C4
:10304000146F0020312C0010186F0020952D0010F7
:103050007C11002070B52525104C114A605D637A03
:103060008021127800F00EFC0E4A605D637A8021A8
:10307000127800F007FC0C4A605D637A80211278B8
:1030800000F000FC094A637A605D8021127800F04C
:10309000F9FB0023E3740433E37170BD7C1100205D
:1030A0003F6F0020406F0020426F0020416F0020E2
:1030B0007047C0467047C04610B5064918F0F1FB8E
:1030C000011C044818F0D3FB18F09EFC024C207041
:1030D00010BDC0460000FE42CA1700200C2110B5EA
:1030E000084A937901334B432521C418064BE4B2B7
:1030F000505C1B7822006B3100F0C4FB034B1C704A
:1031000010BDC0467C110020CA170020C91700203E
:103110000C2210B507498B7901335A4325238218B5
:10312000D2B2C85C0023802100F0ACFBFF22024B2E
:103130001A7010BD7C110020C917002001280ED084
:10314000022805D0002802D10522084B9A72704748
:10315000064A9379062BFAD801339371F7E7034AAD
:103160009379002BF3D0013B9371F0E77C110020A1
:103170007047C04670B53C24294D86B02C233C22B4
:1031800000212800009402F07BFE264B362201939A
:10319000254B322128000093022302F0DBFE80231E
:1031A0003C2254212800009402F06AFE1F4B03AE1B
:1031B0000A22310018781DF03DFC30001FF004FF9A
:1031C0000A308300C01AC4B22100194B40310222D8
:1031D0002800C9B200937C34012302F0E9FE0123E8
:1031E00028000222E1B2009602F0E2FE114B1878AC
:1031F000FF2813D00A2231001DF01CFC30001FF004
:10320000E3FE402143001B185B00013BDBB2C91AFF
:10321000182202232800009602F0CAFE06B070BDF4
:10322000B06A00208C9202102C720410CA17002081
:1032300094920210C91700207047C0467047C046DC
:10324000114B124A1A60124B124A1A60124B134A5F
:103250001A60134B134A1A60134B144A1A60144B2A
:10326000144A1A60144B154A1A60154B154A1A6015
:10327000154B164A1A60164B164A1A60164A174B17
:10328000527A1A707047C046C46A00207531001027
:103290001C6F0020B1300010CC6A0020DD3000101F
:1032A000D86A0020B5300010DC6A0020113100100F
:1032B0008C5A00203D310010885A0020393200100D
:1032C000905A002071310010146F0020B9300010A6
:1032D000186F00203D3200107C110020CA1700201A
:1032E000252010B50449054B054A085C1B78802150
:1032F000127800F0C7FA10BD7C110020CA17002018
:10330000C917002010B5064C1C222100054818F0F2
:1033100007FF21001C221C31034818F001FF10BDDB
:10332000A51100200418002058180020F0B5DE4632
:1033300057464E46454684B2A046E0B585B06C4639
:103340009946C3B29A464346A081109C1B0A0E00C0
:10335000934600210622200098460E9D0F9F18F0EC
:10336000D9FE5246C64B01369B5C920001930C235A
:103370005E43C44BD05843468019C0B2012B00D1E4
:10338000FAE0022B00D1AEE05E46BF49DA00D21A65
:103390008918895D401849460539C0B2022900D90B
:1033A0004FE1BA4B9B189E5DB94B9846424673005D
:1033B00099469B195B00D35CC318DBB223704B4664
:1033C0009B195B0043445A789B780325C318A3706C
:1033D00002239A4682186270002F26DD23780C3370
:1033E0002370012F21D063780C336370022F1CD01F
:1033F000022D1AD0A3780C33A370032F15DD032DF3
:1034000013D0E3780C33E370042F0ED0042D0CD0CE
:1034100023790C332371052F07D0052D05D063794F
:103420000C336371062F00D006252B0062782178BB
:10343000013B8A4201D222706170012B1DD062785B
:10344000A1788A4200D971E0022BF0D0E778B94226
:1034500000D975E0032BEAD021798F4200D979E0B9
:10346000052BE4D167798F42E1D261712178277110
:10347000013B8A42DFD3012BE1D10C2117F0ECFD97
:10348000019A0B00002A00D170E0824A9B009F58ED
:10349000072E03D8804BB200D358029353464E44B4
:1034A00076004644F05C0C2117F0D6FD00237B4CDF
:1034B000119A89000E59137039000F2211981FF0CC
:1034C00003FB11981FF080FD0F240299221A119816
:1034D0001FF0FAFA032D5FDC05B0F0BCBB46B24624
:1034E000A946A046F0BD4B46082B00D1A0E0664B94
:1034F00052465B449B7BC0184B46053BC0B2DBB2D7
:10350000002A00D0B6E0022B00D9CBE05F4B5B4431
:103510009E7B5F4B98464246730099469B195B0021
:10352000D35C0122C318DBB2019247E76170A2703D
:10353000022B1FD0A178E7786278B94200D889E7DA
:10354000A770E170032B00D171E7CFB221798F42D0
:1035500000D885E7E1702771052B00D067E7617916
:103560008F4200D863E72171677160E74C4B890097
:10357000CF588DE7CAB25AE74B46082B71D0424B61
:103580005B44DB79C0184B46053BC0B2022B0CD81C
:103590003E4B5B44DE7907E711981FF015FD3100C3
:1035A000221A11981FF090FA96E70123374AD900A2
:1035B000CB1AD2185B46D65C6B1E9A46002D4BDDAB
:1035C000334B98464246730099469B195B00D25C88
:1035D00082182270012D38D043445A7882186270C4
:1035E000022D00D1F8E69A788218A270032D00D13E
:1035F000F2E6DA788218E270042D00D1ECE61A794E
:1036000082182271052D00D1E6E65B79C31863713B
:10361000002F00DC09E723780C332370012F00D141
:1036200003E763780C336370022F00D0E2E6FCE618
:10363000154B5B44DB79C0180223C0B2134A013B2F
:10364000B5E74A46082AB1D1F8E7002F00DC14E7B5
:1036500023780C33237010E70D4B9846730099467E
:103660000BE7094B5B449B7BC018084BC0B25B4423
:103670009E7BA1E7022B28D8044B5B449E7B93E6FC
:10368000046A0410C069041020180020CC17002020
:10369000186A0410486A04107069041090690410D4
:1036A000786A04100A4B0C215B449E7B6B1E9A4681
:1036B00001230193002D00DD82E717F0CDFC054AC0
:1036C0000B00904672009146DFE602236EE7C0468B
:1036D000CC170020186A041000280BD0012800D055
:1036E0007047D02380221B06D2025A618022120327
:1036F0005A61F5E7D02380221B06D2029A6180220C
:1037000012039A61ECE7C04610B50400122015F0D0
:1037100077FF132015F074FFD023802180221B0631
:10372000C902120359625A62002C1ED0012C19D012
:103730000F4C1049200017F0ADF80221142015F0AD
:103740009DFEC022236B120213400B4A200013601F
:1037500008210023012217F02DF90021200017F085
:1037600065F910BD59615A61E2E799619A61DFE735
:1037700000800340127A000030900340F0B5C64646
:103780000F2500B582B001AC05400E000D439046F8
:103790001F006270A3702200032300210020257007
:1037A0001BF0D2FF902E10D06B46220020200D4936
:1037B000DD1D14788B691842FCD101320C60AA42DD
:1037C000F7D102B080BCB846F0BD002FECD0032882
:1037D000EAD14246044B1A70044A1368013313605D
:1037E000E2E7C0460080034074110020AC6A00206C
:1037F0000F230340502030B5404283B001AC184342
:10380000207003236170A2700021220000201BF0B1
:103810009BFF6B46220020200549DD1D14788B6933
:103820001842FCD101320C60AA42F7D103B030BD7E
:10383000008003400F2303405020404218437B2365
:1038400030B583B001AC63700023220000212070EA
:10385000A370002003331BF077FF6B46220020206B
:103860000549DD1D14788B691842FCD101320C60CA
:10387000AA42F7D103B030BD0080034010B501F07B
:1038800055F910BDF8B50C0017001D0090291CD08B
:10389000194EB37A042B03D02723F35C012B10D0ED
:1038A0002B003A002100FFF769FFB37A042B03D005
:1038B0002723F35C002B00D1F8BD902C01D1002D03
:1038C00014D1380001F022FBF6E7002BE0D00B4BBF
:1038D000094E1A700A4A136801331360B37A042B35
:1038E000DED02723F35C012BDAD1E8E7290038008A
:1038F00001F0EEFAE0E7C0467C11002075110020CF
:10390000A86A0020F0B557464546DE464E46E0B56B
:1039100083B014000CAA1F0013788A4698460190C1
:10392000002F28D090292DD0434B002599462723DE
:103930009B464B46B9461F002678002E16D0BB7A10
:10394000042B03D05B46FB5C012B0CD043463200BA
:1039500051460198FFF712FFBB7A042B06D05B4655
:10396000FB5C002B02D0300001F0D0FA0135EDB243
:103970000134A945E0D103B0F0BCBB46B246A9462C
:10398000A046F0BD4346002B25D12B4E273345469C
:103990009946B84637002678002E16D0BB7A042BFD
:1039A00003D04B46FB5C012B0CD00023320090214E
:1039B0000198FFF7E3FEBB7A042B06D04B46FB5C75
:1039C000002B02D0300001F0A1FA0135EDB2013434
:1039D000A845E0D1CFE7194BB9469B46184B0025C7
:1039E0009A46154B1F002678002E1ED05B461E708F
:1039F000534652461B6801331360BB7A042B03D035
:103A00002723FB5C012B0CD0434632009021019808
:103A1000FFF7B4FEBB7A042B07D02723FB5C002BF7
:103A200003D04146300001F053FA0135EDB20134C4
:103A3000A945D8D19FE7C0467C1100207511002010
:103A4000A86A002070B50D4C0E00A37A1500042B57
:103A500003D02723E35C012B0BD02A003100FFF7B2
:103A6000C7FEA37A042B03D02723E35C002B00D1ED
:103A700070BD2900300001F065FAF9E77C110020E3
:103A800010B5FFF7D7FE01F07BFA10BDF0B5DE46AA
:103A900057464E464546E0B5052097B017F0E2F888
:103AA000654B664A664C9A4691461B781278012708
:103AB0002178079206931A220023089104930F217C
:103AC000029301930093804605975E4803921B334F
:103AD000FDF7A2FC00215C481CF070FD002800D01E
:103AE000C6E200201CF038FD061E00D0B3E2574DA0
:103AF000554829001CF072FD8346002800D1ECE2F5
:103B0000002151481CF032FD29004F481CF0A4FD53
:103B1000051E00DAE5E243464D49980017F0C4FA65
:103B2000062180461A2015F0A9FC06211B2015F05D
:103B3000A5FC06210F2015F0A1FC80235B02129347
:103B40006B1CEA011B031343424A002113401393E9
:103B5000414B2A001593414B3B48149312AB1CF088
:103B6000A1FE02231A220021009737481CF040FED4
:103B700001230F220021009733481CF039FE002258
:103B8000002131481CF0E4FD1F23D8222E492B4090
:103B90008B50434642461B06120A12041B0C134369
:103BA000C82200208B501CF0CBFCA0232C4ADB0544
:103BB0001E605A6019229E600B201A6129496732E3
:103BC00015F086FE284B01211F600B2015F038FEF2
:103BD000C0221D4952010B6824483B430B60002161
:103BE00018F098FA224A234B16701E7056705E70B9
:103BF00096709E7053461E784B4618780123F2B299
:103C000073401700C1B27600002800D05DE2780052
:103C10000F905F00002900D055E25B000E93164B19
:103C200001219A46154B1195994602239C4643461D
:103C30000A96109336E0C046476F002074180020A3
:103C4000486F0020FC92021000002050A86E041063
:103C500044AC0000FFFFFF9F1A3C202000000640FC
:103C600010002050C100002004240050303A0020F1
:103C700030520020243A0020A86A04103452002058
:103C80004B46920010435860042398460433C244C4
:103C90009846034BC1449A4500D1EDE102E0C0468D
:103CA000A86E0410534600229B5E0D9353461D8858
:103CB00002229B5EEA0B0C93534658880A9B1A43D8
:103CC0002378002B04D066465300334052081A4331
:103CD0000A9EAB130B401E430B962678002E07D08E
:103CE0000B9B5E0063461E400B9B5B0833430B93AC
:103CF0000B9B920013430B930A9A6B1326780B408D
:103D00001343002E04D062465E0016405B08334326
:103D10000B9A2678920013430B932A130A9B0A40AE
:103D20001A43002E04D0634656001E405208324308
:103D30000B9B26789B0013430B93EA120A9B0A40C5
:103D40001A43002E04D0634656001E4052083243E8
:103D50000B9B26789B0013430B93AA120A9B0A40E5
:103D60001A43002E04D0634656001E4052083243C8
:103D70000B9B26789B0013430B936A120A9B0A4005
:103D80001A43002E04D0634656001E4052083243A8
:103D90000B9B26789B0013430B932A120A9B0A4025
:103DA0001A43002E04D0634656001E405208324388
:103DB0000B9B26789B0013430B93EA110A9B0A4046
:103DC0001A43002E04D0634656001E405208324368
:103DD0000B9B26789B0013430B93AA110A9B0A4066
:103DE0001A43002E04D0634656001E405208324348
:103DF0000B9B26789B0013430B936A110A9B0A4086
:103E00001A43002E04D0634656001E405208324327
:103E10000B9B26789B0013430B932A110A9B0A40A5
:103E20001A43002E04D0634656001E405208324307
:103E30000B9B26789B0013430B93EA100A9B0A40C6
:103E40001A43002E04D0634656001E4052083243E7
:103E50000B9B26789B0013430B93AA100A9B0A40E6
:103E60001A43002E04D0634656001E4052083243C7
:103E70000B9B6D109B0013430A9A0D40154322784B
:103E8000002A04D066466A0032406D0815430D9A38
:103E90009B002B430F9D0A402A432578002D04D018
:103EA00066465500354052082A439B0013434A4654
:103EB00013602378C20B3A43002B04D065465300AD
:103EC0002B4052081A43831325780B403B43002DA7
:103ED00004D066465D0035405B082B4392001A43D0
:103EE000257843130B403B43002D04D066465D000C
:103EF00035405B082B4392001343257802130A4098
:103F00003A43002D04D066465500354052082A43F6
:103F10009B0013432578C2120A403A43002D04D077
:103F200066465500354052082A439B0013432578C6
:103F300082120A403A43002D04D0664655003540AF
:103F400052082A439B001343257842120A403A4301
:103F5000002D04D066465500354052082A439B0088
:103F60001343257802120A403A43002D04D06646D6
:103F70005500354052082A439B0013432578C2114F
:103F80000A403A43002D04D0664655003540520899
:103F90002A439B001343257882110A403A43002D9F
:103FA00004D066465500354052082A439B0013430F
:103FB000257842110A403A43002D04D06646550048
:103FC000354052082A439B001343257802110A40CA
:103FD0003A43002D04D066465500354052082A4326
:103FE0009B0013432578C2100A403A43002D04D0A9
:103FF00066465500354052082A439B0013432578F6
:1040000082100A403A43002D04D0664655003540E0
:1040100052082A439B001A43401023780840384333
:10402000002B04D0654643002B4040081843920003
:1040300002430C980E9B084018432378002B00D1B4
:104040001EE66546930042002A40400802431A4398
:104050004B465A6018E62748FDF7DEF900239B46D9
:10406000584617B0F0BCBB46B246A946A046F0BDC4
:104070002148FDF7D1F9F1E70122109BFF21984675
:104080001E4B119D1A7000231D4A1E4813701E4AB4
:1040900011701E4A290013701D4A13701D4A1370B7
:1040A0001D4A13701D4A13601D4A13601D4A136098
:1040B0001D4A13601D4A13801D4A13804246023375
:1040C000FDF7AAF9CCE71300A7E51F0078000F90D1
:1040D0005F00002900D1A0E5F5E71648FDF79CF93F
:1040E000BCE7002114481CF059FA29001348FDF7D9
:1040F00093F9B3E7AC93021080930210466F00204F
:104100004D6F00203494021075180020496F002074
:104110004B6F00204C6F00204A6F0020203A002097
:10412000283A0020345A00202C3A00202E6F00201C
:104130002C6F0020DC930210000020500894021025
:10414000F0B54546DE4657464E46E0B50D008BB00D
:10415000EFF3108372B6384C2178CAB200290ED121
:1041600094E2A278002A00D195E283F31088EFF35D
:10417000108372B62178CAB2002900D186E2627833
:10418000002AEED12D4A92460122914601214E4647
:10419000A15583F310880023C65E6B003700012B06
:1041A00018D9AB00984603008044811C94464046D1
:1041B000984600228B5E1A1CB34200DD321C16B2F8
:1041C0001A1CBB4200DA3A1C023117B28142F0D10C
:1041D000624640461A4B1E801A4B1F801A4B1978B4
:1041E0001A4BC9B21B78DBB29846002D00D11CE2F5
:1041F000012347464E00B3464B400E00002F00D02F
:104200001E004746760006965E00002F00D00B0089
:1042100080465B000593AB004344049302239C4615
:104220004B4608935B460120A14637000849079298
:10423000099500931BE0C046243A0020304200203C
:104240002E6F00202C6F0020476F00207418002074
:10425000486F002013435246536004239B460433A7
:10426000D8449B46049BDA44984500D1D8E14346A4
:1042700000229B5E039343461E8802229B5EF20B44
:10428000029343465D88009B1A430B78002B04D0B1
:1042900064465300234052081A43009CB313034062
:1042A0001C4301940C78002C07D0019B5C006346F2
:1042B0001C40019B5B0823430193019B9200134325
:1042C0000193009A73130C7803401343002C04D01D
:1042D00062465C0014405B082343019A0C7892000C
:1042E000134301933213009B02401A43002C04D065
:1042F000634654001C4052082243019B0C789B00EB
:1043000013430193F212009B02401A43002C04D085
:10431000634654001C4052082243019B0C789B00CA
:1043200013430193B212009B02401A43002C04D0A5
:10433000634654001C4052082243019B0C789B00AA
:10434000134301937212009B02401A43002C04D0C5
:10435000634654001C4052082243019B0C789B008A
:10436000134301933212009B02401A43002C04D0E5
:10437000634654001C4052082243019B0C789B006A
:1043800013430193F211009B02401A43002C04D006
:10439000634654001C4052082243019B0C789B004A
:1043A00013430193B211009B02401A43002C04D026
:1043B000634654001C4052082243019B0C789B002A
:1043C000134301937211009B02401A43002C04D046
:1043D000634654001C4052082243019B0C789B000A
:1043E000134301933211009B02401A43002C04D066
:1043F000634654001C4052082243019B0C789B00EA
:1044000013430193F210009B02401A43002C04D086
:10441000634654001C4052082243019B0C789B00C9
:1044200013430193B210009B02401A43002C04D0A6
:10443000634654001C4052082243019B76109B00A7
:104440001343009A064016430A78002A04D06446B3
:104450007200224076081643039A9B00069C334361
:104460000E7802402243002E04D0644656002640B7
:10447000520832439B001343524613600B78EA0BF9
:104480003A43002B04D064465300234052081A4399
:10449000AB130E7803403B43002E04D064465E000D
:1044A00026405B08334392001A430E786B13034097
:1044B0003B43002E04D064465E0026405B08334335
:1044C000920013430E782A1302403A43002E04D080
:1044D000644656002640520832439B0013430E7830
:1044E000EA1202403A43002E04D0644656002640A9
:1044F000520832439B0013430E78AA1202403A43FB
:10450000002E04D0644656002640520832439B00D9
:1045100013430E786A1202403A43002E04D06446D8
:1045200056002640520832439B0013430E782A124D
:1045300002403A43002E04D06446560026405208FA
:1045400032439B0013430E78EA1102403A43002E97
:1045500004D0644656002640520832439B00134361
:104560000E78AA1102403A43002E04D06446560049
:104570002640520832439B0013430E786A110240D2
:104580003A43002E04D06446560026405208324377
:104590009B0013430E782A1102403A43002E04D0A8
:1045A000644656002640520832439B0013430E785F
:1045B000EA1002403A43002E04D0644656002640DA
:1045C000520832439B0013430E78AA1002403A432C
:1045D000002E04D0644656002640520832439B0009
:1045E00013436D100A7805403D43002A04D0644609
:1045F0006A0022406D081543029A9B002B43059CDC
:104600000D78024022439B00002D00D122E6644633
:1046100055002540520815431D4353465D601CE676
:10462000089B4C469946079A099DEFF3108672B68F
:104630000223494663543E4B3E4F98461B78032164
:10464000DBB2FA5443461878013016F02DFD43468C
:10465000C9B21970384B984642461B780133DBB219
:104660001370364B99461B789A46002B18D086F368
:104670001088334A136801331360324B1D600BB04E
:10468000F0BCBB46B246A946A046F0BD2E498A46BC
:10469000002189467AE52D4A92460222914675E527
:1046A0001378002B2DD02A4B03219B461B78DBB2BD
:1046B000FF5C5B461878FFB2013016F0F5FC5B46F4
:1046C000C9B21970434642461B78013BDBB21370F6
:1046D000204B7AB21A7052461F4B1A700323E355CF
:1046E000194BFF02FF188022A0239200DB051F60F8
:1046F000DA611A4A13680133136001234A461370C2
:10470000B5E7FF22134B1A70134BFE3A1A70144A86
:10471000136801331360A022124BD205136080236B
:104720009B00D3610D4A136801331360E5E7C0466F
:104730004C6F0020305200204A6F00204D6F002047
:10474000203A00202C3A0020303A0020304A002045
:104750004B6F002075180020496F0020283A002078
:10476000345A00203452002010B500283BD0204B92
:10477000204A1B780370204B1B784370A023DB0575
:104780001B69DB01DB0F83701C4B1B6843601C4BF8
:104790001B6883601B4B1B68C3601B4B1B6803615A
:1047A00003230375194B1B784375137859424B410A
:1047B000517892784C426141DBB25B18002A13D0E9
:1047C0008375134B1B78C375124B1B880383124BE5
:1047D0001B884383114B1B780377114B1B7843775E
:1047E000104B1B78837710BD0133DBB2E8E7C0467E
:1047F000466F0020243A00204D6F0020203A002010
:10480000283A0020345A00202C3A00204A6F002019
:10481000496F00202E6F00202C6F0020476F002072
:1048200074180020486F0020431E9841044B10B5B7
:10483000C0B2187019780348C9B2FCF7EDFD10BD7D
:10484000476F002070940210044B10B5187019784F
:104850000348C9B2FCF7E0FD10BDC0467418002043
:104860008C940210044B10B5187019780348C9B223
:10487000FCF7D2FD10BDC046486F0020A89402107E
:104880007047C046F0B52C4C0026A544CBA806F0D6
:104890007BFBCB206946BC238022800009189B004B
:1048A00012020800CA5006F051FE0122234B6C464A
:1048B0001A600022224B234D1A700022224B1A60EC
:1048C0000023F0B22B706B70AB706B6017F047F881
:1048D0001E4916F0E6FF1E4916F0CFFF1D4916F0DF
:1048E000C9FF071C200006F04FFB0423E380A03320
:1048F000E750194BD8226361FE2352009B05A35059
:10490000E36105222362502354925593DA23134A1C
:104910005B00E250B4225C3BE2500022A680603390
:1049200020000136E250083506F010FE042EC7D1F3
:104930000B4B9D44F0BDC046A4F9FFFF7818002042
:10494000596F0020F46E0020F06A00209A99193FF8
:1049500000004040CDCC4C3EAE47613EEC51383F6C
:104960005C06000030B50C4CA54401AD04002800E5
:1049700006F00AFBCC2300222800EA50AC8006F0A7
:10498000E5FD0022054BE4001B195A709A70CD23F7
:104990009B009D4430BDC046CCFCFFFFF46E002060
:1049A000F0B50025D8270A4C0A4BA544061C186010
:1049B00001AC200006F0E8FAA58020000135E651A0
:1049C00006F0C4FD042DF4D1CD239B009D44F0BD21
:1049D000CCFCFFFFF06A0020F0B5D6464F464646B5
:1049E000C0B54D4C0600A5446846894606F0CCFA91
:1049F0004A4C6D466378002B02D02278B2426ED0CA
:104A0000627A002A02D0217AB1426ED0617C0029FC
:104A100002D0207CB0426AD0607E002802D0277E7F
:104A2000B74266D0002B66D06368002A67D0E26880
:104A3000002793424BD8002965D06269934249D838
:104A4000002864D0E2699A4247D3FA009046A3183E
:104A50005B78BFB2002B12D0CBAB9A46180006F0A1
:104A600093FA5346002251469F80CC235046CA50A9
:104A700006F06CFD43460022E3185A709A7030002D
:104A8000AF8016F06CFFE860484616F068FF2449D6
:104A900016F0F3FECC23E850224B28001A68D823E6
:104AA000EA5006F053FD4346E65401234444637044
:104AB00000231D4AA3701368591C11606360CB2347
:104AC000DB009D44E0BCBA46B146A846F0BD1300E9
:104AD0000137B0E713000227B2E70327B5E7002745
:104AE000FB009846E3185B78B3E70127F8E7022755
:104AF000F6E70327F4E7002300279846BFE70823DB
:104B000001279846BBE7102302279846B7E71823EA
:104B100003279846B3E7C046A8F9FFFFF46E0020CC
:104B20000000FE42F06A00207818002010B514F052
:104B300049FE8022064C030006212000520015F099
:104B400025FE0022034B1A70034B1A7010BDC0469D
:104B5000E06A00205B6F00205A6F0020F0B5DE464F
:104B600057464E464546E0B5B748C5B0FCF754FC3D
:104B7000FEF78CFF002800D155E124ACB348FCF7C8
:104B80004BFC200006F0C6F9FC22249B12021340C5
:104B90002493082300220125A380A360AC4BA271BB
:104BA0000432E260A3626C3228A96846256165611F
:104BB00017F0B6FA24986168A268E36807F0C8FBAA
:104BC000FFF760FEA34B04211D708023A2485B0009
:104BD000A24AFCF721FCA24B1F931B782393002BC6
:104BE0004BD000232293AC339B469E4B80221D93D7
:104BF0009D4BD20020939D4B9D4E9A469D4B9E4FC0
:104C00009C46624491461E932100300015F008FE38
:104C1000051E1AD02378062BF6D89B00FB589F461A
:104C20000023524600201370FFF79CFE0120FFF77F
:104C300099FE0220FFF796FE0320FFF793FE210066
:104C4000300015F0EDFD051EE4D11D9B1B78002BF7
:104C500000D0BCE0209B1B78002B00D07BE05B46A3
:104C6000002B00D077E006F03FFB80214900FFF7E2
:104C700067FA1F9B1B78002BC6D18048FCF7CCFB42
:104C800045B0F0BCBB46B246A946A046F0BD3F23A6
:104C90006288514693429B415B420B703F2AB3D8D6
:104CA000774DAB78002B00D0B5E0AB7A002B00D06D
:104CB000A9E0AB7C002B00D09DE0AB7E002BBBD1EC
:104CC000A2E7704B60889C46604416F04DFE6E492A
:104CD00016F0D3FDFFF764FE96E72179A078FFF781
:104CE0007BFE91E7A378664D98466B78002B09D040
:104CF0002B78434506D15D4B1B78002B00D19EE0FD
:104D00000123AB706B7A002B09D02B7A434506D177
:104D1000564B1B78002B00D18DE00123AB726B7CCE
:104D2000002B08D02B7C434505D1504B1B78002B22
:104D30007DD00123AB746B7E002B00D164E72B7E0A
:104D4000434500D060E7494B1B78002B00D173E747
:104D50000123AB7658E74D4B4D491D689C462A0010
:104D60001E9B4C48219507E04B4D1980A846598061
:104D700004334244994509D0002AF5DA464D18809B
:104D8000A8465880043342449945F5D1434B8021CD
:104D900098466346219D1E98454449001D60FFF7D3
:104DA000CFF95B46002B00D163E701235B429C46B1
:104DB000E3445B46002B00D05BE7229B002B00D036
:104DC00057E73748FCF728FB239B229351E7274BF3
:104DD00018700020FFF7C6FD0120FFF7C3FD022079
:104DE000FFF7C0FD0320FFF7BDFD1D9B2D481D7083
:104DF000FCF712FB2EE70220FFF7B4FDAB7E002B81
:104E000000D019E700E70120FFF7ACFDAB7C002BD9
:104E100000D152E7EFE70020FFF7A4FDAB7A002BAB
:104E200000D146E7EFE72048FCF7F6FA28E7022032
:104E3000FFF798FD7FE70120FFF794FD6FE7002063
:104E4000FFF790FD5EE7C046C8940210049502107B
:104E5000814800105B6F00201895021044AC0000E0
:104E60007B1100205A6F00205C6F0020596F0020DA
:104E7000E06A0020F46A0020B46E041088950210E5
:104E8000F46E002000E0FFFF00004047C038002023
:104E900078ECFFFF88130000B9DF8D0200B9DF8DC9
:104EA0007495021050950210DC940210014B187892
:104EB000C0B270475B6F0020014B18707047C0464E
:104EC0005C6F0020014B1878C0B270475C6F002007
:104ED00000B583B06B4600221A70094A58801278D8
:104EE0009980002A01D103B000BD6946054815F03C
:104EF0005FFC0028F7D10122034B1A70F3E7C0468C
:104F00005B6F0020E06A00205A6F002010B582B06D
:104F10006946002301248B80074B0C701B78488066
:104F2000002B01D102B010BD044815F041FC00284F
:104F3000F8D1034B1C70F5E75B6F0020E06A00209E
:104F40005A6F002000B583B06B4602221A70094ADE
:104F5000588012789980002A01D103B000BD6946BB
:104F6000054815F025FC0028F7D10122034B1A70E3
:104F7000F3E7C0465B6F0020E06A00205A6F002014
:104F800000B583B06A4606231370002353809380D4
:104F9000074B1B78002B01D103B000BD69460548C3
:104FA00015F006FC0028F7D10122034B1A70F3E735
:104FB0005B6F0020E06A00205A6F00207047C046F7
:104FC0007047C0467047C0467047C0467047C046ED
:104FD0007047C0467047C046F0B5954C0E00A544DA
:104FE00014AF4022390000F079FD051E00D1FBE02E
:104FF000037C002B00D0F7E08E4B6C460093B31D72
:1050000001938D4B0293F31D03938C4B0493330058
:10501000083305938A4B0693330009330793894B72
:10502000089333000A330993874B0A9333000B33F9
:105030000B93864B0C9333000C330D93844B0E93E0
:10504000330025330F93834B109333002733119391
:10505000814B129333002833139302E00834BC428F
:1050600012D02800216800F027FD0028F6D0037C2C
:10507000042BF3D10A22002180681DF01FFF636812
:1050800008341870BC42ECD12800744900F014FDBB
:10509000041E16D0037C002B17D17149200000F0AC
:1050A0000BFD70490500200000F006FD0300002DF7
:1050B00002D02A7C022A18D0002B02D01A7C042AA3
:1050C0000CD00020684B9D44F0BD012BF9D18468C1
:1050D000002CF6D0237C002BF3D1DEE7002198686A
:1050E00006321DF0EBFE7071EBE7AA6810784328DA
:1050F00002D1517800297AD01178432905D154780A
:10510000232C02D19478002C73D0442905D15478F3
:10511000622C02D19478002C6DD0442802D15478AE
:10512000002C6AD0442905D15478232C02D19478DC
:10513000002C64D0452905D15478622C02D1947892
:10514000002C5ED0452802D15478002C5BD0462834
:1051500002D15478002C58D0462905D15478232CFC
:1051600002D19478002C52D0472905D15478622C72
:1051700002D19478002C4CD0472802D15478002CCE
:1051800049D0472905D15478232C02D19478002C9A
:1051900043D0412905D15478622C02D19478002C57
:1051A0003DD0412802D15478002C3CD0412905D172
:1051B0005478232C02D19478002C36D0422905D182
:1051C0005178622902D1917800292AD0422800D052
:1051D00072E75278002A00D06EE710322349D200DD
:1051E00089180A79327167E7012040426AE7002294
:1051F000F4E70122F2E70222F0E70322EEE70422BD
:10520000ECE70522EAE70622E8E70722E6E70822BC
:10521000E4E70922E2E70A22E0E70B22DEE70C22BC
:10522000DCE70F22DAE70D22D8E70E22D6E7C046E8
:10523000ACFAFFFF98950210A0950210B0950210ED
:10524000BC950210C8950210D0950210E09502108E
:10525000E8950210F0950210FC9502100C960210D1
:10526000B09102101096021054050000146F041043
:10527000F0B5DE4657464E464546E0B5D24CD349DA
:10528000A54404001DF04CFE002862D02000D04947
:105290001DF046FE002800D1B9E02000CD491DF0E8
:1052A0003FFE002800D1B8E02000CB491DF038FEB9
:1052B000002800D1A4E02000C8491DF031FE0028DC
:1052C00000D1B1E02000C6491DF02AFE002800D11F
:1052D000B0E02000C3491DF023FE002800D1AFE05C
:1052E0002000C1491DF01CFE002800D1AFE02000C5
:1052F000BE491DF015FE002800D1DAE02000BC49AF
:105300001DF00EFE002800D1E1E02000B9491DF09B
:1053100007FE002800D1E5E02000B7491DF000FE9F
:10532000002800D1E9E006222000B4491DF000FC6D
:10533000051E00D18EE01222B149002019F0D0FFE5
:105340000222B049002019F0CBFF002019F08AFF9B
:105350004EE01AAC2000FFF707FAFCF759F80500F9
:1053600019F094F8060019F081F80700002019F0F0
:1053700003FF804600201AF0D7F98146FFF796FD1B
:105380008246FFF79FFDA37F9F4A1593637F149387
:10539000237F13931A21635E12931821635EC02149
:1053A0001193E37D89001093A37D0F93637D0E938A
:1053B000237D0D9323690C93E3680B93A3680A93F1
:1053C00063680993A3780893637807932378069317
:1053D000534604934B46039343460590029301972B
:1053E0002B0000963AA818F00BFB3AA8FCF74EF9F0
:1053F000864B9D44F0BCBB46B246A946A046F0BDD4
:105400000130FFF721FA8248FCF740F9F0E7FFF797
:105410000BFA8048FCF73AF9EAE70130FFF704FAA3
:105420007D48FCF733F9E3E7FFF70EFA7B48FCF71A
:105430002DF9DDE7FFF716FA7948FCF727F9D7E7EA
:105440000130FFF70FFA7748FCF720F9D0E7FCF7B7
:105450005DF9CDE7744B6C22190006341AA8984602
:1054600016F05EFE714920001DF0C4FB06003AAF45
:1054700002002100380016F053FE3800BD551AA96D
:10548000FFF7AAFD002800D09BE01AA96C22404635
:1054900016F046FE26234246D05CFEF71DF9FDF7C6
:1054A00031FF42462523D05CFEF7EAFA0D2260491F
:1054B00043E7FFF707FD202103005E4A3AA818F0F2
:1054C0009FFA3AA81DF080FD3AA9020035E725228F
:1054D000554B985CFEF7D4FA0120FFF7EDFC0A2249
:1054E00055492AE72522504B985CFEF7C9FA00205F
:1054F000FFF7E2FC0A2251491FE74B498B798E7A6C
:1055000018932523CA791992087A0A7917900C7B87
:10551000CF7AA046CC5C0233A146CC5C0133A246D4
:10552000CC5C4D7AA3464979454B92001AACD358CE
:105530002000444A0091802118F062FA59460991EE
:105540005146089149460791414606911999179885
:1055500001918021189B3AAC3B4A05970290009339
:1055600009011AAB20000496039518F049FA2000AF
:105570001DF02AFD071E00D1E2E6002501200021D2
:10558000404219F007F8002019F0CCFE83B2002B3E
:1055900011D00004000C7E1B864200D90600611960
:1055A0003200002019F09CFEAD19002019F05AFEBF
:1055B000AF42E3D8C4E6012014F0B0FEBD42DDD313
:1055C000BEE610222149B8E614F7FFFFD896021074
:1055D000509802107498021098980210B89802100F
:1055E000D8980210FC9802101C9902102099021001
:1055F00034990210489902106099021068990210BB
:1056000094990210848F0210E0960210EC080000BA
:10561000A89802106098021084980210C89802108E
:10562000EC9802100C9902107C110020FF0300007E
:1056300070990210289902103C9902105499021096
:10564000D06E041018960210349602108099021041
:1056500030B5037802000100002B21D04424214DF5
:1056600006E010000B704378421C0131002B17D06C
:10567000501C222B29D05C2BF3D15378752B11D0E1
:10568000222BEFD05C2BEDD02F2BEBD0622B21D037
:10569000662B21D06E2B21D0722B21D0742B17D0EA
:1056A000002030BD9378EB5C1C42F9D0D378EB5CE2
:1056B0001C42F5D01379EB5C1C42F1D05379EB5CC2
:1056C0001C42EDD03F23501DCCE700230B70E8E7D0
:1056D0000923C7E70823C5E70C23C3E70A23C1E76B
:1056E0000D23BFE77124071001230C388360006885
:1056F0007047C0460C38826843689A4207D2531CF0
:105700008360930001689B189B00C81870470020B5
:10571000FCE7C046F0B5050004E0451C0078013206
:10572000A04217D114782800002CF6D12E782C2E08
:1057300012D00F4A02E00132A6420DD01478002C9C
:10574000F9D10C4A140002E00134BE4209D0277896
:10575000002FF9D10020F0BD064A02E00132A64236
:1057600004D01478002CF9D12C70681C0B74F2E76B
:10577000AC990210A8990210F0B557464E46DE4685
:105780004546E0B5037892467B3B5A1E934183B071
:105790000B741F2389469B46B54B4578B54F461C75
:1057A0000193002D63D03B0002E00133AC4266D090
:1057B0001C78002CF9D132782C2A00D170E04B46AD
:1057C0001B7C591E8B4159465B428B437D339A4269
:1057D0005AD0534650465B6898478046002846D0CA
:1057E0004B461B7C012B5ED03378222B3FD14346A6
:1057F000701C5860FFF72CFF002838D00178002972
:1058000035D03B0002E001338A423BD01A78002AAF
:10581000F9D103783A2B2AD14178002927D0461CA8
:105820003B0002E001338A421DD01A78002AF9D1E8
:105830000023424613604B469B68002B3BD04B46EF
:10584000DB681A6042464B46DA609660327843461F
:10585000222A3AD013005B3BDBB2202B40D80199BF
:105860009B00CB589F46717801360029D8D1002083
:1058700003B0F0BCBB46B246A946A046F0BD013617
:1058800035788EE70130B9E74B4634701B68701CE1
:10589000002BEDD04A46146075789946060080E7E3
:1058A000757801367DE700234246446013604B461D
:1058B0009B68002BC3D14B469A6042464B46DA6048
:1058C000966032784346222AC4D1701C9860FFF754
:1058D000BFFE061ECBD0022342461374057860E754
:1058E00034002D2A01D17278741C0420624B995C1B
:1058F0000842BCD0302A00D190E0002A05D1B6E79A
:1059000062780134002AB2D0995C0842F8D10422AE
:1059100041460A7425782E2D00D187E020222900E7
:105920009143452953D02C2D39D004213B0002E06E
:105930000133AA4231D01A78002AF9D14F4B02E044
:105940000133AA4229D01A78002AF9D18FE700231F
:105950004246137493604A4643461A607578C146BE
:1059600001361EE7464A300003234146FFF7D2FEC8
:105970000600002E00D17AE7357812E730000623C2
:105980004146404AFFF7C6FE0600F2E73E4AEAE714
:105990000123424613740023DCE7042908D132783E
:1059A000A31B2D2A72D0132B00D960E700D17DE014
:1059B00026002578314A03E00132AB4200D1F2E6FD
:1059C0001378002BF8D165782370661CE9E66178BE
:1059D000FD2208002B3810421DD0621C595C49077B
:1059E00000D444E7541C5278002A00D13FE7042138
:1059F00004E062780134002A00D138E79A5C114251
:105A0000F7D105234246137425782C2D01D00521AA
:105A10008CE72600CEE7A178A21CDFE76178621C44
:105A2000595C084200D022E7140070E76178595CA5
:105A30000A4200D11BE7A278A11C002A00D116E778
:105A40000C00042104E062780134002A00D10EE742
:105A50009A5C1142F7D1052241460A7425781B321F
:105A6000290091434529B2D02C2DA1D005215DE715
:105A70009C6F0410AC99021071240710A8990210B1
:105A8000B4990210C4990210BC990210142B00D9C9
:105A9000EDE68DD106480023310023701DF040FA59
:105AA000002800DAE3E62600257083E70148F2E7E4
:105AB000347004102070041070B584680D00002C40
:105AC0000AD06068002804D029001DF029FA0028B7
:105AD00002D02468002CF4D1200070BD70B5174BA3
